:020000040800F2
:10000000F004002065010008350A0008310A0008E4
:10001000330A0008450800089D0F00080000000092
:10002000000000000000000000000000250C000897
:100030000109000800000000290B0008270C000837
:100040007B0100087B0100087B0100087B010008A0
:100050007B0100087B0100087B0100087B01000890
:100060007B0100087B0100087B0100087B01000880
:100070007B0100087B0100087B0100087B01000870
:100080007B0100087B0100087B0100087B01000860
:100090007B0100087B0100087B0100087B01000850
:1000A0007B0100087B0100087B0100087B01000840
:1000B0007B0100087B0100087B0100087B01000830
:1000C0007B0100087B0100087B0100087B01000820
:1000D0007B010008290C0008AD0C00087B0100081A
:1000E000050900087B0100087B01000800000000F2
:1000F0000000000000000000000000000000000000
:1001000000000000000000007B0100087B010008E7
:100110007B0100087B0100087B0100087B010008CF
:100120007B0100087B0100087B0100087B010008BF
:100130007B010008030900087B0100087B0100081F
:100140007B0100087B0100087B0100087B0100089F
:10015000DFF80CD000F054FB00480047A918000855
:10016000F004002005480047FEE7FEE7FEE7FEE753
:10017000FEE7FEE7FEE7FEE7FEE7FEE751010008C7
:1001800080EA010210B502F00043400026D04A0088
:1001900023D04FEA106101EB1261C0F35600C2F3A5
:1001A000560240F4000042F40002A0FB0220A1F13C
:1001B0007F014FEA0040140401D000F1010050EA31
:1001C000124001D44000491EC2B20C0604EBD0100C
:1001D000401C4008802A02D003E0002010BD20F01F
:1001E0000100002900DA0020184310BD2DE9FE4F60
:1001F000804681EA0300C00F0C46009021F00041C8
:1002000023F00045B8EB0200A94105D24046214643
:1002100090461C460B46024623F00040104304D192
:100220004046214603B0BDE8F08F270DC7F30A0012
:10023000C3F30A510290401A0190402866DAC3F3D2
:10024000130040F4801B0098924620B10023D2EBAB
:10025000030A63EB0B0B01985946C0F1400250466C
:1002600000F07DF906460D4650465946019A00F0C9
:1002700085F910EB08006141002487EA115284EAF5
:10028000E7731A433BD0009A3AB3019A012A4FEA26
:10029000075210DC001B61EB02014FF0004202EA42
:1002A0000752CDE90042001C41F5801132462B4631
:1002B00000F0B9F9B6E7001B61EB0201001C41F543
:1002C000801300185B412018A2F5001747EB0301CB
:1002D00040EAD570B6196D4111E06D084FEA360657
:1002E00045EAC0754FEA0752001B61EB0201001C92
:1002F00041F5801149084FEA30000019514132465A
:100300002B4603B0BDE8F04F00F080B90098012201
:1003100040000023D0EB020263EBE073009821461B
:100320004FEAE074B8EB000061EB0401E9E783F009
:1003300000435BE781F0004158E72DE9FE4F81EA79
:10034000030404F0004421F0004100944FF0000B3E
:1003500023F0004350EA010402D052EA030404D11E
:100360000020014603B0BDE8F08FC3F30A54C1F387
:100370000A552C44A4F2F3340194A0FB0254C1F3B7
:10038000130141F48011C3F3130343F4801301FB01
:10039000024400FB034E840A970A44EA815447EA68
:1003A0008357A4FB076802958D0A05FB07854FEA72
:1003B000932C04FB0C542705029D4FEA065847EA8C
:1003C0001637B5EB08056EEB070C870E920E47EA61
:1003D000811742EA8312A7FB0201B6EB0B0164EB23
:1003E00000042B0D43EA0C335E1844EB1C50DA4634
:1003F0005146E7FB0201C5F313044FEA0B3343EA0E
:1004000014534FEA0432019C43EA0603A4F10C049E
:100410000294009CCDE900B400F005F9A2E70EB506
:10042000C10F80EAE0700844CA07002140F233435C
:100430008DE80E000A460B4600F0F5F803B000BD4B
:1004400000F0004220F00040C10DC0F3160040F45F
:1004500000007F2901DA00207047962903DCC1F1F2
:100460009601C84001E096398840002AF4D0404205
:10047000704700F0004230F000400AD0C10D01F595
:100480006071C0F3160042EA0151C20840071143EF
:10049000704700200146704701F0004330B421F05E
:1004A000004150EA010206D00A0DA2F56072C1F3C4
:1004B0001301002A02DC30BC00207047440F44EADC
:1004C000C104C100E01830BC00EBC25000F068B8B5
:1004D00030B50B46014600202022012409E021FA14
:1004E00002F59D4205D303FA02F5491B04FA02F511
:1004F0002844151EA2F10102F1DC30BD2DE9F05FA8
:100500000546002092469B46884606468146402482
:100510001BE0284641464746224600F083F95346F1
:100520005A46C01A914110D311461846224600F08F
:1005300016F82D1A67EB01084F46224601200021CC
:1005400000F00DF817EB00094E41201EA4F1010444
:10055000DFDC484631462A464346BDE8F09F202A64
:1005600004DB203A00FA02F1002070479140C2F10A
:10057000200320FA03F3194390407047202A06DB3A
:10058000CB17203A41FA02F043EAE07306E041FA61
:1005900002F3D040C2F1200291400843194670474F
:1005A0000029A8BF7047401C490008BF20F0010087
:1005B000704710B4B0FA80FC00FA0CF050EA010465
:1005C00004BF10BC704749B1CCF1200421FA04F4F7
:1005D00011FA0CF118BF012121430843A3EB0C01D0
:1005E000CB1D0106000A002BBEBF002010BC7047C7
:1005F00000EBC35010440029A4BF10BC7047401C3E
:10060000490008BF20F0010010BC704710B5002B56
:1006100008DA401C41F1000192185B411A4301D1F4
:1006200020F0010010BD2DE9F04D92469B4611B11E
:10063000B1FA81F202E0B0FA80F220329046FFF780
:100640008EFF04460F4640EA0A0041EA0B0153467A
:100650005A46084303D120463946BDE8F08D11467D
:1006600053EA010015D0C8F14002504600F0DAF814
:1006700005460E46504659464246FFF770FF08436E
:1006800001D0012000E00020054346EAE0762C433B
:1006900037430A984FEA4453A0EB08004FEAD424AA
:1006A0000A304FF0000244EA47544FEAD72502D5FA
:1006B00000200146D1E7010510196941DDE908452F
:1006C00000196941BDE8F04DA0E72DE9F04D81EA40
:1006D000030404F0004B21F0004514464FF0000ADB
:1006E00023F0004150EA050220D054EA01021DD057
:1006F000C5F30A570246C5F31303C1F31300C1F350
:100700000A5640F4801543F48013A7EB0608101B2B
:10071000D64608F2FD3873EB050002D308F1010854
:1007200001E092185B41B8F1000F03DA00200146A6
:10073000BDE8F08D00204FF48011064684460EE09F
:10074000171B73EB050705D3121B63EB0503064369
:100750004CEA010C49084FEA300092185B4150EA1C
:100760000107EDD152EA030012D082EA040083EAC5
:100770000501084303D100224FF0004308E0101B9D
:10078000AB4102D20122002302E06FF001025310BC
:100790001AEB06004CEB085110EB0A0041EB0B0181
:1007A000BDE8F04DFFF732BFC1F30A52C1F31301A8
:1007B00040F2FF3341F480119A4202DA00200146F0
:1007C000704740F233439A42A2F2334202DC524273
:1007D00000F028B8FFF7C3BE30B5002904DB4FF0A6
:1007E0000044404264EB0101002B04DB4FF0004465
:1007F000524264EB0303994208BF904230BD0000AF
:10080000064C074D06E0E06840F0010394E807005D
:1008100098471034AC42F6D3FFF79EFCA4190008A9
:10082000C4190008202A04DB203A21FA02F0002132
:10083000704721FA02F3D040C2F1200291400843F0
:1008400019467047FEE70000044B012282401868F9
:1008500009B1104300E090431860704700740040F5
:1008600030B5084C236840F6FE7282409343D1E9CC
:1008700000252A43D1E902510D432A4382401A43FD
:10088000226030BD00740040034A08B510441430A3
:100890000090016008BD00000074004030B585B0D4
:1008A0000121042000F04EF90121480700F03EF933
:1008B0002020ADF8100000248DF8134003200F4DC8
:1008C0008DF8120004A9284600F040F8202128469F
:1008D00000F0ACF80220CDE9024000946946019492
:1008E0001020FFF7BDFF01211020FFF7ADFF002111
:1008F0000846FFF7C9FF05B030BD00000008014001
:100900007047704710B54FF48044204600F00EF851
:10091000002804D02046BDE8104000F001B810BD0A
:10092000014908607047000014040140064A01466E
:1009300000201268044B0A4014331B680B4202D09B
:10094000002A00D00120704700040140F0B5CC78A7
:10095000002204F00F03E40601D58C7823430C78C1
:100960004FF00F0C4FF0010EDCB105680E880EFA47
:1009700002F42640A64210D196000CFA06F725EAAA
:10098000070703FA06F5CE783D43282E02D0482EFD
:1009900002D002E0446100E00461521C082AE5D361
:1009A00005600A88FF2A1CD94468002202F1080663
:1009B0000EFA06F50E882E40AE420ED196000CFAC5
:1009C00006F7BC4303FA06F7CE783C43282E00D145
:1009D0004561CE78482E00D10561521C082AE5D326
:1009E0004460F0BDF0B5104D6B68440D260184B233
:1009F000C0F30157B440C0F30342032F05D0C00237
:100A00000AD503209040834307E0686823F07062B2
:100A100020F07060686002E0A34343F0706201B1AF
:100A200022436A60F0BD0000000001400161704790
:100A3000FEE7FEE77047F8B500214FF0006000F0D8
:100A400069F84FF4A06000F05BF83D208DF80000DD
:100A500002268DF8016000248DF8024001258DF8F2
:100A60000350684600F01AF825208DF800008DF834
:100A700001608DF802408DF80350684600F00EF8D2
:100A800026208DF8000003208DF801008DF802402B
:100A90008DF80350684600F001F8F8BD70B50F23DB
:100AA000C278017801244FF0E025DAB1124A1268C9
:100AB00002F4E062C2F5E062120AC2F10406D34019
:100AC0004278B24086781E400C4B16433201CA541D
:100AD000007800F01F018C40400905EB8000C0F851
:100AE000004170BD01F01F008440480905EB800003
:100AF000C0F8804170BD00000CED00E000E400E0B3
:100B00000249084302490860704700000000FA05E6
:100B10000CED00E0024A11400143024801607047B9
:100B200080FFFF1F08ED00E070470000044A002925
:100B3000D16901D0014300E08143D16170470000D9
:100B400000100240044A0029916901D0014300E0ED
:100B5000814391617047000000100240F0B52C4BBA
:100B600059682C4A11F00C014FF00F0604D02A4CA2
:100B7000042903D0082903D0026028E0046026E09D
:100B800059685A6806EA914102F480320D2901D071
:100B9000891C00E00621BAB1DA6A12F4803FDA6AF1
:100BA00002F00F0202F101020AD0DD6AC5F3031759
:100BB000DD6A7F1CB4FBF7F4C5F30325AD1C6C4361
:100BC000B4FBF2F24A43D7E7144A51430160596833
:100BD000134A06EA1111545C0168E14041605C6807
:100BE000072505EA1424145D21FA04F484605C6886
:100BF00005EAD424125DD140C1605A68032303EA98
:100C00009232074B1B1F9A5CB1FBF2F10161F0BD00
:100C10000010024000127A0040787D0100093D007A
:100C2000140000207047704770B51D4C40F22555E8
:100C30002946204600F031F910B3201D01881A4AD8
:100C400018489368C1549168491C916091680229C1
:100C50000DD39168014411F8021C3F2907D1916816
:100C6000084410F8010C3B2801D101205070906815
:100C7000642801D9002090602946204600F052F8EF
:100C800040F227752946204600F007F9002805D0D4
:100C900029462046BDE8704000F044B870BD000011
:100CA000003801408C0000200400002070B51A4C70
:100CB00040F22551204600F0F0F8F0B1201D0288E6
:100CC000174916484B68C2544A68521C4A604A6821
:100CD000022A0DD34A68024412F8022C3F2A07D197
:100CE0004A68104410F8010C3B2801D1012008701B
:100CF0004868642801D90020486040F227752946D9
:100D0000204600F0CAF8002805D029462046BDE854
:100D1000704000F007B870BD00440040280000207B
:100D2000040000200A0A01219140C9430180704754
:100D30000029818902D041F4005101E021F40051E1
:100D4000818170472DE9F04F85B0012144F2050003
:100D5000FFF7F8FE4FF40070ADF800001827474D7C
:100D60008DF8037003248DF8024069462846FFF78A
:100D7000EDFD2E15ADF800604FF0040B8DF803B0BB
:100D80008DF8024069462846FFF7E0FD4FF4805990
:100D900000254FF4E138ADF80890ADF80C604FF045
:100DA0000C0ACDF80480ADF80A50ADF81050ADF83B
:100DB0000EA001A9324800F0A7F8012240F2255107
:100DC0002F4800F089F801212D48FFF7B1FF40F2CC
:100DD00026612B48FFF7A6FF01214804FFF7A6FE76
:100DE00001212020FFF7AEFE01210820FFF7FAFDC8
:100DF0002020ADF800008DF80370224F8DF80240DE
:100E000069463846FFF7A2FD4020ADF800008DF896
:100E100003B08DF8024069463846FFF797FDADF8FC
:100E20000890ADF80A50ADF81050174DADF80C60B1
:100E3000CDF80480ADF80EA001A9284600F064F8B2
:100E4000012240F22551284600F046F801212846AB
:100E5000FFF76EFF40F226612846FFF763FF102080
:100E6000ADF800008DF802408DF803006946384661
:100E7000FFF76CFD05B0BDE8F08F000000080140F1
:100E800000380140001401400044004002460020A8
:100E900012880A4200D00120704770B501F01F058A
:100EA00001260024C1F3421306FA05F2012B0FD0EC
:100EB000022B0FD0838A4FEA11210088134206FAD1
:100EC00001F600EA060001D000B10124204670BD01
:100ED0008389F0E7038AEEE710B5C1F3421301F00E
:100EE0001F040121A140012B07D0022B07D0143091
:100EF000002A026805D00A4304E00C30F8E71030FD
:100F0000F6E78A43026010BD30B50446008A85B01A
:100F10000D464CF6FF710840E98801432182A08903
:100F20004EF6F3110840A9882A8911436A890243C1
:100F30001143A181A08A4FF6FF410840A9890143CE
:100F4000A1826846FFF70AFE1148844201D1039846
:100F500000E00298642200EBC00101EB0010296858
:100F60006FF018058900B0FBF1F0B0FBF2F1090158
:100F70000B096B4300EB8300322303EB0010B0FB43
:100F8000F2F000F00F000843208105B030BD0000F2
:100F900000380140C1F3080181807047FEE700007E
:100FA0000FB4054B10B503A9044A029800F0C6F827
:100FB00010BC5DF814FB0000851800082400002018
:100FC00002E008C8121F08C1002AFAD17047704712
:100FD000002001E001C1121F002AFBD17047000070
:100FE0002DE9FF5FDDE90220010DDDF838B0024395
:100FF00010D10F9801244CA2012808D0002100989C
:101000000F9BC0E90021C0E90243BDE8FF9F6FEAE2
:101010000B01F4E7A1F2FF3144F6105041430D14E7
:101020000F9801280ED0A5EB0B00401C4FF00004D8
:101030003E4EDFF8FC90B0F1000AA04605DACAF196
:10104000000717E0CBF10000F0E7074612E0F807D1
:1010500007D02246334640464946FFF76EF98046A0
:1010600089462246334610461946FFF766F904467C
:101070000E467F10002FEAD1DDE90201BAF1000F20
:1010800042464B4602DAFFF758F901E0FFF71DFB35
:1010900004460E460022274BFFF79EFB03D84FF075
:1010A000FF30014607E00022234B20463146FFF780
:1010B0009DF8FFF779FB102409E0002C0ADB0A22D7
:1010C0000023FFF71BFA019B30321A55641E50EAC9
:1010D0000102F2D1641C019AC4F1110314440F9A65
:1010E000012A09D00122084301D15B450FDD4FF0F1
:1010F000000205F101050DE0084303D1A3EB0B0548
:101100006D1E09E000204FF0110B0F9088E701DA07
:1011100000226D1E002A83D000980F99C0E9023189
:10112000C0E9004571E700003000000000002440E5
:101130000000F03F0000F0430000E03F2DE9FF4FCA
:1011400095B09B4689460646002512E2252878D1AF
:101150000024761CF94A2746012105943378203B68
:1011600001FA03F0104202D00443761CF6E730780F
:101170002A2811D06FF02F033078A0F13002092A0D
:1011800016D8059A44F0020402EB820203EB4202F5
:101190001044761C0590EFE759F8042B0592002ABD
:1011A00003DA504244F40054059044F00204761CE3
:1011B00030782E2816D116F8010F44F004042A289E
:1011C0000DD06FF02F023078A0F13003092B09D831
:1011D00007EB870302EB4303C718761CF3E759F8C4
:1011E000047B761C30786C280FD006DC4C2817D096
:1011F00068280DD06A2814D104E0742810D07A2809
:101200000FD10DE044F400140AE044F4801401E02E
:1012100044F440147278824202D1761C04F58014A2
:10122000761C307866280BD013DC582877D009DC80
:10123000002875D04528F6D04628F4D047281AD182
:101240009FE118E0632835D0642879D0652812D151
:1012500097E1702873D008DC6728F1D069286FD037
:101260006E280DD06F2806D1B5E073282CD07528D4
:1012700075D0782874D05A46179990476D1C76E13E
:10128000C4F30250022809D003280DD0D9F8001069
:1012900004280DD00D6009F1040968E1D9F80010A7
:1012A000EA17C1E90052F6E7D9F800100D80F2E71D
:1012B0000D70F0E719F8041B8DF8001000208DF870
:1012C0000100EA46012003E059F804AB4FF0FF307B
:1012D00061074FF0000102D40DE008F101018846DA
:1012E000B9420FDA8045F8DB1AF808100029F4D16A
:1012F00008E008F1010188468142FADB1AF808107B
:101300000029F6D105985B46A0EB08072146384630
:10131000179A00F09EFA284400EB080507E04DE01C
:101320002BE10DE01AF8010B5A4617999047B8F1D6
:101330000108F7D25B4621463846179A14E142E08D
:101340000A220092C4F302524FF0000A022A08D087
:1013500059F804CB032A4FEAEC710AD00DE029E0DA
:101360002AE009F1070121F00702F2E802C19146E3
:1013700009E00FFA8CFC4FEAEC71042A03D14FFA12
:101380008CFC4FEAEC71002907DA0A460021DCF1F7
:10139000000C61EB02012D2202E0220504D52B2274
:1013A0008DF80420012203E0E20701D02022F7E7B4
:1013B000904653E00A2102E010220DE010214FF088
:1013C000000A00910BE010224FF0000A44F00404E0
:1013D0000827009203E008224FF0000A0092C4F3AD
:1013E0000252022A05D059F804CB0021032A08D062
:1013F00009E009F1070121F00702F2E802C1914674
:1014000005E01FFA8CFC042A01D10CF0FF0C4FF010
:101410000008220722D5702827D0009B83F01003F4
:1014200053EA0A0309D15CEA010206D030228DF8A2
:1014300004208DF8050002229046009B83F00803EB
:1014400053EA0A030AD15CEA010201D1620705D519
:1014500030228DF804204FF001087F1E582809D053
:1014600037A003900EA8029013E040228DF80420CC
:101470000122E1E737A0F4E753466046009AFFF700
:101480003DF884460398825C0298A0F10100029026
:1014900002705CEA0100EFD1029806A9A1EB0000FE
:1014A00000F1200A600702D524F4803400E001270F
:1014B000574502DDA7EB0A0000E0002000EB0A011F
:1014C000009005984144A0EB01000590E00306D48C
:1014D0005B462146179A059800F0BBF905440027A2
:1014E00006E001A85A46C05D179990476D1C7F1C05
:1014F0004745F6DBE0030CD55B462146179A059875
:1015000000F0A7F9054404E030205A4617999047A7
:101510006D1C0099481E00900029F5DC08E0029837
:1015200002995A460078491C0291179990476D1C00
:10153000BAF10001AAF1010AF1DC6BE1092801000E
:101540003031323334353637383961626364656639
:1015500000000000303132333435363738394142FB
:10156000434445460000000000F060F9054406F1E0
:101570000106307800287FF4E9AD19B02846BDE8AF
:10158000F08F620700D4062709F1070222F0070C4A
:10159000FCE80223E14603F000485FEA080C02D0B1
:1015A0000FF27C2C0DE05FEA045C02D50FF2742C84
:1015B00007E05FEAC47C02D00FF26C2C01E0AFF2CE
:1015C000700C4FF0FF3823F00043CDF850C0652871
:1015D0000CD006DC452809D046281DD047283ED12E
:1015E0003EE0662818D0672839D139E00021112F54
:1015F00001DB112000E0781CCDE9000106A90EA84E
:10160000FFF7EEFCDDE90F010E9A03910021009235
:1016100007F1010A04914EE04FF000400097CDE938
:10162000011006A90EA8FFF7DBFCDDE90F0203920B
:101630000E9B11990022DDF80CA00093049219B9B9
:1016400007F1010100EB010AB7EB0A0004D4C0F175
:10165000FF3007F1010A0490AAEB0700019046E071
:10166000012F00DA01270021112F01DD112000E0F8
:101670003846CDE9000106A90EA8FFF7B1FCDDE967
:101680000F010E9A0391002104910092BA4621079E
:101690000CD40399514500DA8A46BAF1010F05DDF1
:1016A000009AAAF10101515C302908D0B84202DA4F
:1016B00010F1040F06DA0121CDE9011017E0AAF1BB
:1016C0000101E9E7002805DC049901440491AAEB33
:1016D000000102E0411C514500DD8A460499A0EB5F
:1016E000010000F1010001904FF00040029020073E
:1016F00004D40198504501DBCDF8048000208DF81A
:101700004F0002980DF14F07B0F1004F25D02B206C
:101710000E9002984FF0020800280CDA4042029026
:101720002D200E9007E00A210298FEF7D1FE3031FD
:10173000029007F8011DB8F10001A8F10108F2DCE0
:1017400002980028EFD1791E0E980870307800F0CA
:10175000200040F0450007F8020D12A8A0EB07009A
:1017600000F107081498007800B1012000EB0A018D
:10177000019801EBE07105984144A0EB0100A0F154
:1017800001000590E00306D45B462146179A0598B0
:1017900000F05FF805441498007820B15A46179974
:1017A000904705F10105E00323D55B462146179AD2
:1017B000059800F04EF805441BE00498002807DB6C
:1017C000DDE90301884203DD0098405C179901E0E0
:1017D000179930205A46904704986D1C401C04907D
:1017E0000198401E019004D12E205A461799904727
:1017F0006D1CBAF10001AAF1010ADEDC05E017F860
:10180000010B5A46179990476D1CB8F10001A8F1D9
:101810000108F4DC5B462146179A0598A4E600000F
:101820002D0000002B000000200000002DE9F041F9
:10183000044600251E461746880405D406E03946AE
:101840002020B04705F10105641EF8D52846BDE803
:10185000F0812DE9F041044600251E469046C8035C
:1018600001D5302700E02027880405D506E0414651
:101870003846B04705F10105641EF8D52846BDE895
:10188000F081000070B5074D0446C1B22846FFF74D
:1018900081FB40212846FFF7F9FA0128F9D12046BB
:1018A00070BD000000440040FFF7C5F8FFF74AFA9A
:1018B000FEF7F4FF104D28780128FCD100242C708D
:1018C00000F034F80D4E308881B20020FEF7DCFFC6
:1018D0003068FEF7A4FD0A4A0A4BFEF72EFDFEF71C
:1018E000DBFDFEF7C6FD02460B4607A0FFF758FBDF
:1018F0000D480460DFE70000040000200000002025
:10190000B4D934E70C684A3F54686520766F6C742C
:10191000616765206F66205041352069733A253430
:101920002E3266560A000000080000202DE9F04122
:10193000154CE0783038FEF772FD144A144BFEF770
:10194000FCFC0746A07888463038FEF768FD114A4F
:10195000114BFEF7F2FC054620780E463038FEF7B4
:101960005EFD2A463346FEF741FC3A464346FEF703
:101970003DFCFEF791FD0949FEF702FCFEF760FD14
:1019800007490860BDE8F081280000207B14AE47BD
:10199000E17A843F9A9999999999B93F00409B447B
:1019A00000000020C41900080000002028000000EA
:1019B000C00F0008EC19000828000020C80400002F
:1019C000D00F000800000000000000000000000030
:1019D00000000000020406080000000001020304E9
:0C19E000010203040607080900000000D3
:04000005080001519D
:00000001FF
