:020000040800F2
:1000000068060020ED01000853050008FD04000803
:100010005105000897020008690700080000000069
:100020000000000000000000000000003106000891
:1000300099020008000000001506000805070008E6
:10004000030200080302000803020008030200087C
:10005000030200080302000803020008030200086C
:10006000030200080302000803020008030200085C
:10007000030200080302000803020008030200084C
:10008000030200080302000803020008030200083C
:100090000302000803020008030200089D02000892
:1000A000030200080302000803020008030200081C
:1000B000030200080302000803020008030200080C
:1000C00003020008030200080302000803020008FC
:1000D00003020008030200080302000803020008EC
:1000E00003020008030200080302000800000000E9
:1000F0000000000000000000000000000000000000
:1001000000000000000000000302000803020008D5
:1001100003020008030200080302000803020008AB
:10012000030200080302000803020008030200089B
:10013000030200089B0200080302000803020008F3
:10014000030200080302000803020008030200087B
:1001500000F002F800F03AF80AA090E8000C82449F
:100160008344AAF10107DA4501D100F02FF8AFF27C
:10017000090EBAE80F0013F0010F18BFFB1A43F085
:1001800001031847F805000018060000103A24BFC4
:1001900078C878C1FAD8520724BF30C830C144BFEC
:1001A00004680C607047000000230024002500262E
:1001B000103A28BF78C1FBD8520728BF30C148BFCA
:1001C0000B6070471FB51FBD10B510BD00F02DF8B6
:1001D0001146FFF7F7FF00F0C8FA00F04BF803B440
:1001E000FFF7F2FF03BC00F04FF80000084800479B
:1001F000FEE7FEE7FEE7FEE7FEE7FEE7FEE7FEE7D7
:10020000FEE7FEE703480449044A054B7047000037
:1002100051010008680000206806002068020020E4
:1002200068020020704770477047754600F028F854
:10023000AE4605006946534620F00700854618B0D3
:1002400020B5FFF7DFFFBDE820404FF000064FF07C
:1002500000074FF000084FF0000B21F00701AC46FB
:10026000ACE8C009ACE8C009ACE8C009ACE8C0091A
:100270008D4670470446AFF300802046FFF7AFFF7E
:10028000004870470400002001491820ABBEFEE77B
:10029000260002007047FEE77047704770B54020A7
:1002A00000F07EF8194D6C1530B12146284600F05B
:1002B00021F9402000F02CF8802000F071F838B1CE
:1002C0004FF40061284600F015F9802000F020F876
:1002D0004FF48076304600F063F830B17101284663
:1002E00000F008F9304600F013F8204600F058F806
:1002F000002809D04FF48041284600F0FBF8204642
:10030000BDE8704000F004B870BD00000018014066
:100310000149086070470000140401403EB5012106
:10032000112000F079F94FF47074ADF80840032003
:100330008DF80A0004208DF80B0002A9174800F080
:100340008BF80621022000F073F80721022000F04C
:100350006FF80821022000F06BF80921022000F05C
:1003600067F84020FFF7D4FF8020FFF7D1FF4FF45C
:100370008070FFF7CDFF4FF40070FFF7C9FF00203A
:100380008DF8040010208DF8050001208DF806007E
:100390000094684600F014F83EBD000000100140D3
:1003A000064A014600201268044B0A4014331B68B9
:1003B0000B4202D0002A00D0012070470004014007
:1003C00030B51A4A8379016853B313688B431360BD
:1003D000111D0B680468A3430B60017911440B687D
:1003E000046823430B60114B083319680468A14368
:1003F00019601C1D21680568A943216041791029F5
:1004000005D011440A68006802430A6030BD1968CB
:10041000026811431960216800680143216030BD02
:100420000079104402688A43026030BD0004014034
:1004300010B58A0721F003040649120F21440F2347
:100440008C6893409C438C608B68904003438B6026
:1004500010BD000000000140F0B5CC78002204F08F
:100460000F03E40601D58C7823430C784FF00F0C72
:100470004FF0010EDCB105680E880EFA02F426403A
:10048000A64210D196000CFA06F725EA070703FAF0
:1004900006F5CE783D43282E02D0482E02D002E049
:1004A000446100E00461521C082AE5D305600A8813
:1004B000FF2A1CD94468002202F108060EFA06F54C
:1004C0000E882E40AE420ED196000CFA06F7BC43C1
:1004D00003FA06F7CE783C43282E00D14561CE784A
:1004E000482E00D10561521C082AE5D34460F0BDB6
:1004F00001617047C2684A40C2607047FEE7000071
:1005000038B50121402000F087F84FF4D440ADF811
:10051000000003208DF8020010200C4C8DF8030021
:1005200069462046FFF798FF61152046FFF7E0FF78
:10053000E1142046FFF7DCFF61142046FFF7D8FFE7
:100540004FF480412046FFF7D3FF38BD001801402B
:10055000FEE7704708B500214FF0006000F050F84A
:100560004FF4A06000F042F817208DF80000002042
:100570008DF801008DF8020001208DF80300684617
:1005800000F002F808BD000070B50F23C2780178B2
:1005900001244FF0E025DAB1124A126802F4E06259
:1005A000C2F5E062120AC2F10406D3404278B240BA
:1005B00086781E400C4B16433201CA54007800F076
:1005C0001F018C40400905EB8000C0F8004170BD60
:1005D00001F01F008440480905EB8000C0F880410D
:1005E00070BD00000CED00E000E400E002490843AB
:1005F00002490860704700000000FA050CED00E0B9
:10060000024A1140014302480160704780FFFF1F0A
:1006100008ED00E070470000044A0029916901D00C
:10062000014300E0814391617047000000100240E7
:10063000704700000CB500222E480092019201681C
:1006400041F4803101604FF4A063016801F400318E
:1006500001910099491C0091019911B900999942A1
:10066000F3D10168890342D50121019122490A6829
:1006700042F010020A600A6822F003020A600A6867
:1006800042F002020A60416841604168416041688D
:1006900041F480614160C16A184A1140C162C16A77
:1006A000174A1143C162016841F08061016001682D
:1006B0000901FCD5416821F47C114160416841F495
:1006C000E8114160016841F08071016001688901B1
:1006D000FCD5416821F003014160416841F002010D
:1006E00041604168C1F381010229FAD10CBD019238
:1006F000FEE70000001002400020024000F0FEFF74
:100700004406010000F028B80F48016841F00101DB
:10071000016041680D4A1140416001680C4A114076
:100720000160016821F480210160416821F4FE012B
:100730004160016821F0A05101604FF47F018160A8
:100740000021C162FFF776BF001002400000FFF0F9
:10075000FFFFF6FEFFF7D8BF024801680A310160CB
:100760007047000000000020FEE7FFF7F3FFFFF7EF
:10077000C7FEFFF7D3FDFFF7EDFEFEE79C0700087D
:1007800000000020040000008C010008A007000801
:100790000400002064060000A8010008000000001A
:04000005080001519D
:00000001FF
