:020000040800F2
:1000000050070020ED0100080B040008CD03000894
:100010000904000897020008850A00080000000093
:10002000000000000000000000000000FD050008C6
:10003000990200080000000001050008D106000830
:10004000030200080302000803020008030200087C
:10005000030200080302000803020008030200086C
:10006000030200080302000803020008030200085C
:10007000030200080302000803020008030200084C
:10008000030200080302000803020008030200083C
:10009000030200080302000803020008030200082C
:1000A000030200080302000803020008030200081C
:1000B000030200080302000803020008030200080C
:1000C00003020008030200080302000803020008FC
:1000D0000302000825070008A9070008030200081A
:1000E0009D0200080302000803020008000000004F
:1000F0000000000000000000000000000000000000
:1001000000000000000000000302000803020008D5
:1001100003020008030200080302000803020008AB
:10012000030200080302000803020008030200089B
:10013000030200089B0200080302000803020008F3
:10014000030200080302000803020008030200087B
:1001500000F002F800F03AF80AA090E8000C82449F
:100160008344AAF10107DA4501D100F02FF8AFF27C
:10017000090EBAE80F0013F0010F18BFFB1A43F085
:10018000010318476C0900008C090000103A24BFD5
:1001900078C878C1FAD8520724BF30C830C144BFEC
:1001A00004680C607047000000230024002500262E
:1001B000103A28BF78C1FBD8520728BF30C148BFCA
:1001C0000B6070471FB51FBD10B510BD00F02DF8B6
:1001D0001146FFF7F7FF00F057FC00F04BF803B4AF
:1001E000FFF7F2FF03BC00F04FF80000084800479B
:1001F000FEE7FEE7FEE7FEE7FEE7FEE7FEE7FEE7D7
:10020000FEE7FEE703480449044A054B7047000037
:100210005101000850010020500700205003002029
:1002200050030020704770477047754600F028F86B
:10023000AE4605006946534620F00700854618B0D3
:1002400020B5FFF7DFFFBDE820404FF000064FF07C
:1002500000074FF000084FF0000B21F00701AC46FB
:10026000ACE8C009ACE8C009ACE8C009ACE8C0091A
:100270008D4670470446AFF300802046FFF7AFFF7E
:1002800000487047EC00002001491820ABBEFEE793
:10029000260002007047FEE77047704710B54FF424
:1002A0008044204600F00EF8002804D02046BDE827
:1002B000104000F001B810BD01490860704700000F
:1002C00014040140064A014600201268044B0A400B
:1002D00014331B680B4202D0002A00D00120704763
:1002E00000040140F0B5CC78002204F00F03E406CE
:1002F00001D58C7823430C784FF00F0C4FF0010E92
:10030000DCB105680E880EFA02F42640A64210D130
:1003100096000CFA06F725EA070703FA06F5CE78E9
:100320003D43282E02D0482E02D002E0446100E076
:100330000461521C082AE5D305600A88FF2A1CD9EB
:100340004468002202F108060EFA06F50E882E40D7
:10035000AE420ED196000CFA06F7BC4303FA06F73C
:10036000CE783C43282E00D14561CE78482E00D16E
:100370000561521C082AE5D34460F0BDF0B5104D6C
:100380006B68440D260184B2C0F30157B440C0F33A
:100390000342032F05D0C0020AD5032090408343B7
:1003A00007E0686823F0706220F07060686002E027
:1003B000A34343F0706201B122436A60F0BD0000C4
:1003C000000001404161704701617047FEE7000095
:1003D00038B50121402000F0A1F84FF4D444ADF825
:1003E000004010208DF803000320064D8DF8020018
:1003F00069462846FFF776FF21462846FFF7E4FFC7
:1004000038BD000000180140FEE77047F8B5002134
:100410004FF0006000F06AF84FF4A06000F05CF864
:100420003D208DF8000002268DF8016000248DF833
:10043000024001258DF80350684600F01BF8252086
:100440008DF800008DF801608DF802408DF80350A2
:10045000684600F00FF826208DF8000003208DF884
:1004600001008DF802408DF80350684600F002F854
:10047000F8BD000070B50F23C278017801244FF059
:10048000E025DAB1124A126802F4E062C2F5E062D5
:10049000120AC2F10406D3404278B24086781E4068
:1004A0000C4B16433201CA54007800F01F018C40F7
:1004B000400905EB8000C0F8004170BD01F01F004D
:1004C0008440480905EB8000C0F8804170BD000001
:1004D0000CED00E000E400E0024908430249086036
:1004E000704700000000FA050CED00E0024A1140E0
:1004F000014302480160704780FFFF1F08ED00E0E4
:1005000070470000044A0029D16901D0014300E08E
:100510008143D1617047000000100240044A002965
:10052000916901D0014300E081439161704700006F
:1005300000100240F0B52C4B59682C4A11F00C0108
:100540004FF00F0604D02A4C042903D0082903D009
:10055000026028E0046026E059685A6806EA914182
:1005600002F480320D2901D0891C00E00621BAB1C5
:10057000DA6A12F4803FDA6A02F00F0202F1010235
:100580000AD0DD6AC5F30317DD6A7F1CB4FBF7F4FC
:10059000C5F30325AD1C6C43B4FBF2F24A43D7E725
:1005A000144A514301605968134A06EA1111545C18
:1005B0000168E14041605C68072505EA1424145D88
:1005C00021FA04F484605C6805EAD424125DD14009
:1005D000C1605A68032303EA9232074B1B1F9A5CDF
:1005E000B1FBF2F10161F0BD0010024000127A008F
:1005F00040787D0100093D00140000207047000094
:100600000CB500222E4800920192016841F480311D
:1006100001604FF4A063016801F400310191009979
:10062000491C0091019911B900999942F3D10168CF
:10063000890342D50121019122490A6842F0100242
:100640000A600A6822F003020A600A6842F00202A5
:100650000A604168416041684160416841F48061DD
:100660004160C16A184A1140C162C16A174A114308
:10067000C162016841F08061016001680901FCD537
:10068000416821F47C114160416841F4E811416006
:10069000016841F08071016001688901FCD5416801
:1006A00021F003014160416841F00201416041686D
:1006B000C1F381010229FAD10CBD0192FEE70000CD
:1006C000001002400020024000F0FEFF440601003E
:1006D000704700000F48016841F001010160416866
:1006E0000D4A1140416001680C4A114001600168E7
:1006F00021F480210160416821F4FE01416001681C
:1007000021F0A05101604FF47F0181600021C1629E
:10071000FFF776BF001002400000FFF0FFFFF6FE7B
:10072000FFF7D8BF70B51D4C40F22555294620462D
:1007300000F02AF910B3201D01881A4A184893685E
:10074000C1549168491C9160916802290DD3916848
:10075000014411F8021C3F2907D19168084410F8A0
:10076000010C3B2801D1012050709068642801D908
:10077000002090602946204600F052F840F227758C
:100780002946204600F000F9002805D029462046D9
:10079000BDE8704000F044B870BD00000038014072
:1007A000880000200400002070B51A4C40F225514A
:1007B000204600F0E9F8F0B1201D028817491648DC
:1007C0004B68C2544A68521C4A604A68022A0DD3D8
:1007D0004A68024412F8022C3F2A07D14A681044A2
:1007E00010F8010C3B2801D10120087048686428EA
:1007F00001D90020486040F227752946204600F0C4
:10080000C3F8002805D029462046BDE8704000F016
:1008100007B870BD00440040240000200400002000
:100820000A0A01219140C94301807047002981894A
:1008300002D041F4005101E021F400518181704760
:100840002DE9F04F85B0012144F20500FFF766FE67
:100850004FF40070ADF800001827474D8DF8037075
:1008600003248DF8024069462846FFF73BFD2E150C
:10087000ADF800604FF0040B8DF803B08DF8024026
:1008800069462846FFF72EFD4FF4805900254FF4A6
:10089000E138ADF80890ADF80C604FF00C0ACDF8D7
:1008A0000480ADF80A50ADF81050ADF80EA001A9C3
:1008B000324800F0A1F8012240F225512F4800F003
:1008C00082F801212D48FFF7B1FF40F226612B4845
:1008D000FFF7A6FF01214804FFF714FE01212020A5
:1008E000FFF71CFE01210820FFF748FD2020ADF88E
:1008F00000008DF80370224F8DF80240694638469B
:10090000FFF7F0FC4020ADF800008DF803B08DF843
:10091000024069463846FFF7E5FCADF80890ADF8AF
:100920000A50ADF81050174DADF80C60CDF80480AA
:10093000ADF80EA001A9284600F05EF8012240F2B1
:100940002551284600F03FF801212846FFF76EFFA9
:1009500040F226612846FFF763FF1020ADF8000043
:100960008DF802408DF8030069463846FFF7BAFC5F
:1009700005B0BDE8F08F00000008014000380140DC
:10098000001401400044004070B501F01F0501262D
:100990000024C1F3421306FA05F2012B0FD0022BFB
:1009A0000FD0838A4FEA11210088134206FA01F61C
:1009B00000EA060001D000B10124204670BD838901
:1009C000F0E7038AEEE710B5C1F3421301F01F040C
:1009D0000121A140012B07D0022B07D01430002A9F
:1009E000026805D00A4304E00C30F8E71030F6E75F
:1009F0008A43026010BD000030B50446008A85B00D
:100A00000D464CF6FF710840E98801432182A08918
:100A10004EF6F3110840A9882A8911436A890243D6
:100A20001143A181A08A4FF6FF410840A9890143E3
:100A3000A1826846FFF77EFD1148844201D10398E8
:100A400000E00298642200EBC00101EB001029686D
:100A50006FF018058900B0FBF1F0B0FBF2F109016D
:100A60000B096B4300EB8300322303EB0010B0FB58
:100A7000F2F000F00F000843208105B030BD000007
:100A800000380140FEE70000FFF74AFEFFF7BEFC1A
:100A9000FFF7D6FEFFF79CFC104D114F114EDFF80B
:100AA00048A0DFF848804FF4007900242878012816
:100AB000FCD12C7038783070312802D0322809D11E
:100AC00004E049465046FFF77DFC03E049465046A6
:100AD000FFF77AFCC8F80040E8E7000004000020B7
:100AE0002400002000000020001801400800002021
:100AF000100B000800000020240000008C010008FA
:100B0000340B0008240000202C070000A801000876
:100B100000000000000000000000000000000000D5
:100B2000020406080000000001020304010203049D
:040B300006070809A3
:04000005080001519D
:00000001FF
