:020000040800F2
:10000000F004002065010008E7030008F30200087F
:10001000E5030008A50100085109000800000000E0
:10002000000000000000000000000000D9050008EA
:10003000A701000800000000DD040008DB0500083F
:100040007B0100087B0100087B0100087B010008A0
:100050007B0100087B0100087B0100087B01000890
:100060007B0100087B0100087B0100087B01000880
:100070007B0100087B0100087B0100087B01000870
:100080007B0100087B0100087B0100087B01000860
:100090007B0100087B0100087B0100087B01000850
:1000A0007B0100087B0100087B0100087B01000840
:1000B0007B0100087B0100087B0100087B01000830
:1000C0007B0100087B0100087B0100087B01000820
:1000D0007B010008DD050008610600087B010008BF
:1000E000BB0100087B0100087B0100080000000044
:1000F0000000000000000000000000000000000000
:1001000000000000000000007B0100087B010008E7
:100110007B0100087B0100087B0100087B010008CF
:100120007B0100087B0100087B0100087B010008BF
:100130007B010008B90100087B0100087B01000871
:100140007B0100087B0100087B0100087B0100089F
:10015000DFF80CD000F014F800480047C909000887
:10016000F004002005480047FEE7FEE7FEE7FEE753
:10017000FEE7FEE7FEE7FEE7FEE7FEE751010008C7
:10018000064C074D06E0E06840F0010394E80700E4
:1001900098471034AC42F6D3FFF7DEFF800A000820
:1001A000A00A0008FEE7704701B5009801E0401E74
:1001B00000900028FBD108BD704710B54FF4804473
:1001C000204600F00FF8002804D02046BDE810407B
:1001D00000F002B810BD000001490860704700003F
:1001E00014040140064A014600201268044B0A40EC
:1001F00014331B680B4202D0002A00D00120704744
:1002000000040140F0B5CC78002204F00F03E406AE
:1002100001D58C7823430C784FF00F0C4FF0010E72
:10022000DCB105680E880EFA02F42640A64210D111
:1002300096000CFA06F725EA070703FA06F5CE78CA
:100240003D43282E02D0482E02D002E0446100E057
:100250000461521C082AE5D305600A88FF2A1CD9CC
:100260004468002202F108060EFA06F50E882E40B8
:10027000AE420ED196000CFA06F7BC4303FA06F71D
:10028000CE783C43282E00D14561CE78482E00D14F
:100290000561521C082AE5D34460F0BDF0B5104D4D
:1002A0006B68440D260184B2C0F30157B440C0F31B
:1002B0000342032F05D0C0020AD503209040834398
:1002C00007E0686823F0706220F07060686002E008
:1002D000A34343F0706201B122436A60F0BD0000A5
:1002E000000001400246002092680A4200D001202E
:1002F0007047FEE708B50121102000F0FDF84FF42B
:100300007070ADF8000001208DF8020048208DF8D3
:10031000030069460148FFF775FF08BD0010014062
:1003200070B52F4D40212846FFF7DCFF42F21074D4
:1003300088B180212846FFF7D5FFE0B1AE153146E0
:100340002846FFF7CFFF30B36E1531462846FFF73A
:10035000C9FF80B339E02046FFF726FF4021284639
:10036000FFF7C0FF40BB40212846FFF7BBFF002836
:10037000F9D0022070BD2046FFF716FF80212846E5
:10038000FFF7B0FFC0B980212846FFF7ABFF002878
:10039000F9D0032070BD2046FFF706FF31462846FE
:1003A000FFF7A0FF40B931462846FFF79BFF002822
:1003B000F9D0042070BD00E007E02046FFF7F4FE0E
:1003C00031462846FFF78EFF08B10120F2E731469B
:1003D0002846FFF787FF0028F9D00520EAE700004C
:1003E00000100140FEE77047F8B500214FF00060B3
:1003F00000F06AF84FF4A06000F05CF83D208DF842
:10040000000002268DF8016000248DF802400125CD
:100410008DF80350684600F01BF825208DF8000089
:100420008DF801608DF802408DF80350684600F0A9
:100430000FF826208DF8000003208DF801008DF8BC
:1004400002408DF80350684600F002F8F8BD000045
:1004500070B50F23C278017801244FF0E025DAB19E
:10046000124A126802F4E062C2F5E062120AC2F1B6
:100470000406D3404278B24086781E400C4B1643A7
:100480003201CA54007800F01F018C40400905EB8E
:100490008000C0F8004170BD01F01F008440480991
:1004A00005EB8000C0F8804170BD00000CED00E05D
:1004B00000E400E002490843024908607047000078
:1004C0000000FA050CED00E0024A11400143024829
:1004D0000160704780FFFF1F08ED00E070470000DB
:1004E000044A0029D16901D0014300E08143D16170
:1004F0007047000000100240044A0029916901D0B1
:10050000014300E081439161704700000010024008
:10051000F0B52C4B59682C4A11F00C014FF00F0626
:1005200004D02A4C042903D0082903D0026028E013
:10053000046026E059685A6806EA914102F4803264
:100540000D2901D0891C00E00621BAB1DA6A12F443
:10055000803FDA6A02F00F0202F101020AD0DD6A7E
:10056000C5F30317DD6A7F1CB4FBF7F4C5F303255D
:10057000AD1C6C43B4FBF2F24A43D7E7144A514333
:1005800001605968134A06EA1111545C0168E140A0
:1005900041605C68072505EA1424145D21FA04F41F
:1005A00084605C6805EAD424125DD140C1605A6859
:1005B000032303EA9232074B1B1F9A5CB1FBF2F153
:1005C0000161F0BD0010024000127A0040787D0108
:1005D00000093D00140000207047704770B51D4CA5
:1005E00040F225552946204600F031F910B3201D70
:1005F00001881A4A18489368C1549168491C91604F
:10060000916802290DD39168014411F8021C3F2919
:1006100007D19168084410F8010C3B2801D1012052
:1006200050709068642801D90020906029462046C7
:1006300000F052F840F227752946204600F007F9ED
:10064000002805D029462046BDE8704000F044B897
:1006500070BD0000003801408C0000200400002024
:1006600070B51A4C40F22551204600F0F0F8F0B178
:10067000201D0288174916484B68C2544A68521C0C
:100680004A604A68022A0DD34A68024412F8022CD2
:100690003F2A07D14A68104410F8010C3B2801D1C9
:1006A000012008704868642801D90020486040F2A1
:1006B00027752946204600F0CAF8002805D02946AB
:1006C0002046BDE8704000F007B870BD004400400F
:1006D00028000020040000200A0A01219140C9439B
:1006E000018070470029818902D041F4005101E066
:1006F00021F40051818170472DE9F04F85B001212F
:1007000044F20500FFF7F8FE4FF40070ADF800006A
:100710001827474D8DF8037003248DF80240694671
:100720002846FFF76FFD2E15ADF800604FF0040B63
:100730008DF803B08DF8024069462846FFF762FD48
:100740004FF4805900254FF4E138ADF80890ADF82A
:100750000C604FF00C0ACDF80480ADF80A50ADF8EB
:100760001050ADF80EA001A9324800F0A7F8012200
:1007700040F225512F4800F089F801212D48FFF75C
:10078000B1FF40F226612B48FFF7A6FF0121480484
:10079000FFF7A6FE01212020FFF7AEFE0121082071
:1007A000FFF77CFD2020ADF800008DF80370224F8C
:1007B0008DF8024069463846FFF724FD4020ADF829
:1007C00000008DF803B08DF8024069463846FFF707
:1007D00019FDADF80890ADF80A50ADF81050174D5E
:1007E000ADF80C60CDF80480ADF80EA001A9284644
:1007F00000F064F8012240F22551284600F046F846
:1008000001212846FFF76EFF40F226612846FFF7D8
:1008100063FF1020ADF800008DF802408DF8030052
:1008200069463846FFF7EEFC05B0BDE8F08F0000E2
:10083000000801400038014000140140004400401D
:100840000246002012880A4200D00120704770B58D
:1008500001F01F0501260024C1F3421306FA05F238
:10086000012B0FD0022B0FD0838A4FEA1121008871
:10087000134206FA01F600EA060001D000B1012495
:10088000204670BD8389F0E7038AEEE710B5C1F317
:10089000421301F01F040121A140012B07D0022BBC
:1008A00007D01430002A026805D00A4304E00C3057
:1008B000F8E71030F6E78A43026010BD30B5044611
:1008C000008A85B00D464CF6FF710840E988014367
:1008D0002182A0894EF6F3110840A9882A89114384
:1008E0006A8902431143A181A08A4FF6FF41084063
:1008F000A9890143A1826846FFF70AFE1148844294
:1009000001D1039800E00298642200EBC00101EBE2
:10091000001029686FF018058900B0FBF1F0B0FBFA
:10092000F2F109010B096B4300EB8300322303EB67
:100930000010B0FBF2F000F00F000843208105B07A
:1009400030BD000000380140C1F3080181807047CC
:10095000FEE70000014A024900F013B8A5090008AB
:100960002400002002E008C8121F08C1002AFAD1A2
:1009700070477047002001E001C1121F002AFBD11F
:1009800070472DE9F04116460F460446002503E066
:100990003946B0476D1C641C20780028F8D12846E1
:1009A000BDE8F08170B5074D0446C1B22846FFF797
:1009B000CBFF40212846FFF743FF0128F9D120460D
:1009C00070BD000000440040FFF70EFDFFF794FEED
:1009D000FFF790FC0D4CFFF7A3FC2060022802D12A
:1009E0000BA0FFF7B7FF2068032802D10FA0FFF785
:1009F000B1FF2068042802D113A0FFF7ABFF2068E5
:100A00000528E8D117A0FFF7A5FFE4E700000020C4
:100A10000D0A20546865204B4559312069732070B8
:100A20007265737365642021200D0A000D0A20543D
:100A30006865204B45593220697320707265737365
:100A400065642021200D0A000D0A20546865204BA2
:100A50004559332069732070726573736564202172
:100A6000200D0A000D0A20546865204B455934209A
:100A7000697320707265737365642021200D0A000C
:100A8000A00A0008000000202800000064090008F7
:100A9000C80A000828000020C804000074090008E3
:100AA0000000000000000000000000000000000046
:100AB000020406080000000001020304010203040E
:080AC000060708090000000010
:04000005080001519D
:00000001FF
