:020000040800F2
:10000000F804002065010008090800080508000838
:1000100007080008D70600084D140008000000007B
:10002000000000000000000000000000110A0008AD
:10003000D90600080000000015090008FD0A0008A4
:100040007B0100087B0100087B0100087B010008A0
:100050007B0100087B0100087B0100087B01000890
:100060007B0100087B0100087B0100087B01000880
:100070007B0100087B0100087B0100087B01000870
:100080007B0100087B0100087B0100087B01000860
:100090007B0100087B0100087B0100087B01000850
:1000A0007B0100087B0100087B0100087B01000840
:1000B0007B0100087B0100087D0C00087B01000823
:1000C0007B0100087B0100087B0100087B01000820
:1000D0007B010008D91000085D1100087B010008B1
:1000E000DD0600087B0100087B010008000000001D
:1000F0000000000000000000000000000000000000
:1001000000000000000000007B0100087B010008E7
:100110007B0100087B0100087B0100087B010008CF
:100120007B0100087B0100087B0100087B010008BF
:100130007B010008DB0600087B0100087B0100084A
:100140007B0100087B0100087B0100087B0100089F
:10015000DFF80CD000F07CFA00480047AD1D000825
:10016000F804002005480047FEE7FEE7FEE7FEE74B
:10017000FEE7FEE7FEE7FEE7FEE7FEE751010008C7
:100180002DE9FE4F81EA030404F0004421F0004110
:1001900000944FF0000B23F0004350EA010402D01A
:1001A00052EA030404D10020014603B0BDE8F08FF9
:1001B000C3F30A54C1F30A552C44A4F2F334019456
:1001C000A0FB0254C1F3130141F48011C3F31303E4
:1001D00043F4801301FB024400FB034E840A970A98
:1001E00044EA815447EA8357A4FB076802958D0AC5
:1001F00005FB07854FEA932C04FB0C542705029D51
:100200004FEA065847EA1637B5EB08056EEB070CC0
:10021000870E920E47EA811742EA8312A7FB02017A
:10022000B6EB0B0164EB00042B0D43EA0C335E18B4
:1002300044EB1C50DA465146E7FB0201C5F31304B8
:100240004FEA0B3343EA14534FEA0432019C43EA6A
:100250000603A4F10C040294009CCDE900B400F064
:10026000D1F8A2E72DE9F04D81EA030404F0004B38
:1002700021F0004514464FF0000A23F0004150EAF7
:10028000050220D054EA01021DD0C5F30A570246E8
:10029000C5F31303C1F31300C1F30A5640F48015EC
:1002A00043F48013A7EB0608101BD64608F2FD386E
:1002B00073EB050002D308F1010801E092185B41DD
:1002C000B8F1000F03DA00200146BDE8F08D0020F0
:1002D0004FF48011064684460EE0171B73EB0507AA
:1002E00005D3121B63EB050306434CEA010C4908D6
:1002F0004FEA300092185B4150EA0107EDD152EA13
:10030000030012D082EA040083EA0501084303D106
:1003100000224FF0004308E0101BAB4102D2012243
:10032000002302E06FF0010253101AEB06004CEBC1
:10033000085110EB0A0041EB0B01BDE8F04D00F055
:1003400054B80EB540F2334102910021CDE90011BD
:100350000A460B4600F056F803B000BD30B50B4618
:10036000014600202022012409E021FA02F59D42E5
:1003700005D303FA02F5491B04FA02F52844151EB9
:10038000A2F10102F1DC30BD2DE9F05F054600204D
:1003900092469B4688460646814640241BE02846F6
:1003A00041464746224600F074F953465A46C01A61
:1003B000914110D311461846224600F05BF92D1AE0
:1003C00067EB01084F4622460120002100F052F958
:1003D00017EB00094E41201EA4F10104DFDC484662
:1003E00031462A464346BDE8F09F10B5002B08DA97
:1003F000401C41F1000192185B411A4301D120F0E9
:10040000010010BD2DE9F04D92469B4611B1B1FAA5
:1004100081F202E0B0FA80F22032904600F02AF930
:1004200004460F4640EA0A0041EA0B0153465A4689
:10043000084303D120463946BDE8F08D114653EA02
:10044000010015D0C8F14002504600F022F90546DF
:100450000E4650465946424600F00CF9084301D07A
:10046000012000E00020054346EAE0762C433743B4
:100470000A984FEA4453A0EB08004FEAD4240A300C
:100480004FF0000244EA47544FEAD72502D5002036
:100490000146D1E7010510196941DDE90845001958
:1004A0006941BDE8F04DA0E72DE9FE4F804681EAA5
:1004B0000300C00F0C46009021F0004123F00045DE
:1004C000B8EB0200A94105D24046214690461C46A1
:1004D0000B46024623F00040104304D1404621461B
:1004E00003B0BDE8F08F270DC7F30A00C3F30A512C
:1004F0000290401A0190402866DAC3F3130040F4DA
:10050000801B0098924620B10023D2EB030A63EBD4
:100510000B0B01985946C0F14002504600F0AAF872
:1005200006460D4650465946019A00F0C2F810EBB7
:1005300008006141002487EA115284EAE7731A43F4
:100540003BD0009A3AB3019A012A4FEA075210DCD5
:10055000001B61EB02014FF0004202EA0752CDE9B5
:100560000042001C41F5801132462B46FFF74AFF3E
:10057000B6E7001B61EB0201001C41F58013001877
:100580005B412018A2F5001747EB030140EAD57044
:10059000B6196D4111E06D084FEA360645EAC0759F
:1005A0004FEA0752001B61EB0201001C41F580116C
:1005B00049084FEA30000019514132462B4603B03A
:1005C000BDE8F04FFFF711BF009801224000002363
:1005D000D0EB020263EBE073009821464FEAE0742F
:1005E000B8EB000061EB0401E9E783F000435BE74F
:1005F00081F0004158E7C1F30A52C1F3130140F200
:10060000FF3341F480119A4202DA0020014670471C
:1006100040F233439A42A2F2334202DC524200F0EB
:1006200038B800F027B8000030B5002904DB4FF0DF
:100630000044404264EB0101002B04DB4FF0004416
:10064000524264EB0303994208BF904230BD000060
:10065000064C074D06E0E06840F0010394E807000F
:1006600098471034AC42F6D3FFF776FDD41E00084D
:10067000F41E0008202A04DB203A00FA02F10020D0
:1006800070479140C2F1200320FA03F319439040D0
:100690007047202A04DB203A21FA02F0002170473B
:1006A00021FA02F3D040C2F12002914008431946DA
:1006B0007047202A06DBCB17203A41FA02F043EAC2
:1006C000E07306E041FA02F3D040C2F1200291400B
:1006D000084319467047FEE77047704710B54FF45E
:1006E0008044204600F00EF8002804D02046BDE8E3
:1006F000104000F001B810BD0149086070470000CB
:1007000014040140064A014600201268044B0A40C6
:1007100014331B680B4202D0002A00D0012070471E
:1007200000040140F0B5CC78002204F00F03E40689
:1007300001D58C7823430C784FF00F0C4FF0010E4D
:10074000DCB105680E880EFA02F42640A64210D1EC
:1007500096000CFA06F725EA070703FA06F5CE78A5
:100760003D43282E02D0482E02D002E0446100E032
:100770000461521C082AE5D305600A88FF2A1CD9A7
:100780004468002202F108060EFA06F50E882E4093
:10079000AE420ED196000CFA06F7BC4303FA06F7F8
:1007A000CE783C43282E00D14561CE78482E00D12A
:1007B0000561521C082AE5D34460F0BDF0B5104D28
:1007C0006B68440D260184B2C0F30157B440C0F3F6
:1007D0000342032F05D0C0020AD503209040834373
:1007E00007E0686823F0706220F07060686002E0E3
:1007F000A34343F0706201B122436A60F0BD000080
:1008000000000140FEE7FEE77047F8B500214FF019
:10081000006000F075F84FF4A06000F067F83D202C
:100820008DF8000002268DF8016000258DF8025039
:1008300001248DF80340684600F026F825208DF845
:1008400000008DF801608DF802508DF80340684675
:1008500000F01AF826208DF8000003208DF8010022
:100860008DF802508DF80340684600F00DF81E2008
:100870008DF800008DF801508DF802408DF803408E
:10088000684600F001F8F8BD70B50F23C278017812
:1008900001244FF0E025DAB1124A126802F4E06256
:1008A000C2F5E062120AC2F10406D3404278B240B7
:1008B00086781E400C4B16433201CA54007800F073
:1008C0001F018C40400905EB8000C0F8004170BD5D
:1008D00001F01F008440480905EB8000C0F880410A
:1008E00070BD00000CED00E000E400E002490843A8
:1008F00002490860704700000000FA050CED00E0B6
:10090000024A1140014302480160704780FFFF1F07
:1009100008ED00E070470000044A0029D16901D0C9
:10092000014300E08143D1617047000000100240A4
:10093000044A0029916901D0014300E0814391619B
:100940007047000000100240F0B52C4B59682C4A4B
:1009500011F00C014FF00F0604D02A4C042903D0EB
:10096000082903D0026028E0046026E059685A682C
:1009700006EA914102F480320D2901D0891C00E081
:100980000621BAB1DA6A12F4803FDA6A02F00F0285
:1009900002F101020AD0DD6AC5F30317DD6A7F1C8C
:1009A000B4FBF7F4C5F30325AD1C6C43B4FBF2F2C2
:1009B0004A43D7E7144A514301605968134A06EA8B
:1009C0001111545C0168E14041605C68072505EA4B
:1009D0001424145D21FA04F484605C6805EAD424CC
:1009E000125DD140C1605A68032303EA9232074B7B
:1009F0001B1F9A5CB1FBF2F10161F0BD00100240D7
:100A000000127A0040787D0100093D001A000020A4
:100A1000704700000CB500222E4800920192016838
:100A200041F4803101604FF4A063016801F40031AA
:100A300001910099491C0091019911B900999942BD
:100A4000F3D10168890342D50121019122490A6845
:100A500042F010020A600A6822F003020A600A6883
:100A600042F002020A6041684160416841604168A9
:100A700041F480614160C16A184A1140C162C16A93
:100A8000174A1143C162016841F080610160016849
:100A90000901FCD5416821F47C114160416841F4B1
:100AA000E8114160016841F08071016001688901CD
:100AB000FCD5416821F003014160416841F0020129
:100AC00041604168C1F381010229FAD10CBD019254
:100AD000FEE70000001002400020024000F0FEFF90
:100AE000440601004FF0E0210428086903D020F0FB
:100AF00004000861704740F00400FAE77047000006
:100B00000F48016841F00101016041680D4A114040
:100B1000416001680C4A11400160016821F48021A4
:100B20000160416821F4FE014160016821F0A0519B
:100B300001604FF47F0181600021C162FFF76ABF4D
:100B4000001002400000FFF0FFFFF6FE70B5048CBD
:100B500024F001040484058B048C4FF6FF7606EA2A
:100B60000313134325F0F3052B4324F002020A4339
:100B700042F001010383018470BDF0B5048C24F0C0
:100B800010040484078B068C4FF6FF7404EA0115E9
:100B900027F4734704EA0331394304EA02220A4383
:100BA00026F02001294341F0100102830184F0BDA9
:100BB00030B50D46044689B001210220FFF7ACFE96
:100BC00001211120FFF7B4FE01212948FFF7F6FDAE
:100BD0004FF47072ADF81C2018228DF81F200320EE
:100BE0008DF81E0007A92348FFF79CFDADF81440BF
:100BF000ADF810500024204DADF81640ADF812406D
:100C000004A9284600F04AFA6020ADF8000001204F
:100C1000ADF80200ADF80640ADF808406946284638
:100C200000F0D2F80821284600F0FEF86946284670
:100C300000F000F90821284600F03CF969462846F2
:100C400000F042F90821284600F07CF96946284660
:100C500000F07EF90821284600F0ACF90121284671
:100C600000F080F80121284600F08AF809B030BD74
:100C7000000C1A00001001400004004070B50C4C3C
:100C80000C4D207870B10421284600F088F838B166
:100C9000284600F080F8A080284600F07EF86080AA
:100CA000002020702846BDE87040052100F065B89E
:100CB000100000200008004070B50E46044688B0C1
:100CC00001210420FFF728FE01210820FFF730FE54
:100CD0008020ADF8180004258DF81B5003208DF8F6
:100CE0001A0006A91D48FFF71DFDADF81040ADF82C
:100CF0000C6000241A4EADF81240ADF80E4003A966
:100D0000304600F0CBF90120ADF80400ADF80050FA
:100D1000ADF80240ADF80640ADF8084069463046EF
:100D200000F052F96021304600F084F90421304689
:100D300000F08EF98021304600F082F90122052171
:100D4000304600F038F80521304600F016F8012151
:100D5000304600F015F808B070BD0000000C0140EE
:100D6000000800400029018802D041F0800102E023
:100D700040F27F32114001807047C94301827047C1
:100D80000029018802D041F0010102E040F2FE3268
:100D9000114001807047808E7047008F7047024677
:100DA0000020138A92890B4202EA010202D0002A33
:100DB00000D001207047002A828901D00A4300E058
:100DC0008A4382817047000030B5028C22F0010214
:100DD0000284058C8388028B0C8822F073021443F2
:100DE00025F002020D8915434A882A430C4DA8427A
:100DF00002D00C4DA8420DD122F008054A8923F4F7
:100E000003432A4322F004058A882A438D891D431F
:100E1000CB892B4383800483C9888186028430BDBB
:100E2000002C014000340140028B22F008020A43EA
:100E30000283704770B5028C22F010020284028C8B
:100E40008388048B0D8824F4E6464FF6FF7404EA89
:100E5000052535430E8922F0200204EA06161643C2
:100E60004A8804EA02123243104EB04202D0104EB9
:100E7000B04215D122F080064A8923F40C4304EADB
:100E80000212324322F040068A8804EA02123243F8
:100E90008E8904EA86061E43CB8904EA8303334322
:100EA00083800583C9880187028470BD002C0140BE
:100EB00000340140028B4FF6FF7322F4006203EA14
:100EC000012111430183704770B5028C22F48072B6
:100ED0000284028C8388848B0D8824F0730425435C
:100EE0000E894FF6FF7422F4007204EA06261643B8
:100EF0004A8804EA02223243104EB04202D0104E19
:100F0000B04215D122F400664A8923F4304304EA42
:100F10000222324322F480668A8804EA02223243A3
:100F20008E8904EA06161E43CB8904EA0313334371
:100F300083808583C9888187028470BD002C01402D
:100F400000340140828B22F008020A4382837047FA
:100F500070B5028C22F480520284058C8288838BC7
:100F60000C8823F4E6464FF6FF7303EA0424344367
:100F700025F400560D8903EA053535434E8803EA0A
:100F800006362E43094DA84202D0094DA84205D18C
:100F9000C2F30D058A8903EA82122A438280848380
:100FA000C988A0F84010068470BD0000002C0140E4
:100FB00000340140828B4FF6FF7322F4006203EA93
:100FC00001211143818370472DE9F0410C46002631
:100FD00049880746012501B90226A288012A00D1C5
:100FE0000225208823890028384611D0FFF7C5FD47
:100FF000E188384600F045F823892A4631463846CC
:10100000FFF7A4FDE1883846BDE8F04100F031B8B3
:10101000FFF79CFDE188384600F02BF823892A462B
:1010200031463846FFF7A9FDE1883846BDE8F04172
:1010300000F027B8028922F070020A43028170474B
:10104000028922F08002028102890A4302817047EC
:10105000028922F00702028102890A430281704755
:10106000818670470187704781877047A0F84010DC
:101070007047028B22F00C020283028B0A43028328
:101080007047028B22F440620283028B4FF6FF739B
:1010900003EA01210A43028370470000028802F03C
:1010A0008F020280CA884B881A4303881A43028041
:1010B0008A8882850A880285054A904202D0054ABC
:1010C000904201D1097A0186012181827047000096
:1010D000002C01400034014070B51D4C40F22555F4
:1010E0002946204600F031F910B3201D01881A4A24
:1010F00018489368C1549168491C9160916802290D
:101100000DD39168014411F8021C3F2907D1916861
:10111000084410F8010C3B2801D101205070906860
:10112000642801D9002090602946204600F052F83A
:1011300040F227752946204600F007F9002805D01F
:1011400029462046BDE8704000F044B870BD00005C
:1011500000380140940000200000002070B51A4CB7
:1011600040F22551204600F0F0F8F0B1201D028831
:10117000174916484B68C2544A68521C4A604A686C
:10118000022A0DD34A68024412F8022C3F2A07D1E2
:101190004A68104410F8010C3B2801D10120087066
:1011A0004868642801D90020486040F22775294624
:1011B000204600F0CAF8002805D029462046BDE8A0
:1011C000704000F007B870BD0044004030000020BF
:1011D000000000200A0A01219140C94301807047A4
:1011E0000029818902D041F4005101E021F400512D
:1011F000818170472DE9F04F85B0012144F205004F
:10120000FFF796FB4FF40070ADF800001827474D2C
:101210008DF8037003248DF8024069462846FFF7D5
:1012200081FA2E15ADF800604FF0040B8DF803B075
:101230008DF8024069462846FFF774FA4FF480594A
:1012400000254FF4E138ADF80890ADF80C604FF090
:101250000C0ACDF80480ADF80A50ADF81050ADF886
:101260000EA001A9324800F0A7F8012240F2255152
:101270002F4800F089F801212D48FFF7B1FF40F217
:1012800026612B48FFF7A6FF01214804FFF744FB26
:1012900001212020FFF74CFB01210820FFF78EFAE7
:1012A0002020ADF800008DF80370224F8DF8024029
:1012B00069463846FFF736FA4020ADF800008DF851
:1012C00003B08DF8024069463846FFF72BFAADF8B7
:1012D0000890ADF80A50ADF81050174DADF80C60FD
:1012E000CDF80480ADF80EA001A9284600F064F8FE
:1012F000012240F22551284600F046F801212846F7
:10130000FFF76EFF40F226612846FFF763FF1020CB
:10131000ADF800008DF802408DF8030069463846AC
:10132000FFF700FA05B0BDE8F08F000000080140AB
:1013300000380140001401400044004002460020F3
:1013400012880A4200D00120704770B501F01F05D5
:1013500001260024C1F3421306FA05F2012B0FD037
:10136000022B0FD0838A4FEA11210088134206FA1C
:1013700001F600EA060001D000B10124204670BD4C
:101380008389F0E7038AEEE710B5C1F3421301F059
:101390001F040121A140012B07D0022B07D01430DC
:1013A000002A026805D00A4304E00C30F8E7103048
:1013B000F6E78A43026010BD30B50446008A85B066
:1013C0000D464CF6FF710840E98801432182A0894F
:1013D0004EF6F3110840A9882A8911436A8902430D
:1013E0001143A181A08A4FF6FF410840A98901431A
:1013F000A1826846FFF7A8FA1148844201D10398F8
:1014000000E00298642200EBC00101EB00102968A3
:101410006FF018058900B0FBF1F0B0FBF2F10901A3
:101420000B096B4300EB8300322303EB0010B0FB8E
:10143000F2F000F00F000843208105B030BD00003D
:1014400000380140C1F3080181807047FEE70000C9
:101450000FB4054B10B503A9044A029800F0C6F872
:1014600010BC5DF814FB0000891D00082C00002052
:1014700002E008C8121F08C1002AFAD1704770475D
:10148000002001E001C1121F002AFBD170470000BB
:101490002DE9FF5FDDE90220010DDDF838B00243E0
:1014A00010D10F9801244CA2012808D000210098E7
:1014B0000F9BC0E90021C0E90243BDE8FF9F6FEA2E
:1014C0000B01F4E7A1F2FF3144F6105041430D1433
:1014D0000F9801280ED0A5EB0B00401C4FF0000424
:1014E0003E4EDFF8FC90B0F1000AA04605DACAF1E2
:1014F000000717E0CBF10000F0E7074612E0F8071D
:1015000007D02246334640464946FEF739FE80461C
:1015100089462246334610461946FEF731FE0446F8
:101520000E467F10002FEAD1DDE90201BAF1000F6B
:1015300042464B4602DAFEF723FE01E0FEF792FE3A
:1015400004460E460022274BFFF76EF803D84FF0F3
:10155000FF30014607E00022234B20463146FEF7CC
:10156000A3FFFFF748F8102409E0002C0ADB0A2249
:101570000023FEF709FF019B30321A55641E50EA22
:101580000102F2D1641C019AC4F1110314440F9AB0
:10159000012A09D00122084301D15B450FDD4FF03C
:1015A000000205F101050DE0084303D1A3EB0B0593
:1015B0006D1E09E000204FF0110B0F9088E701DA53
:1015C00000226D1E002A83D000980F99C0E90231D5
:1015D000C0E9004571E70000300000000000244031
:1015E0000000F03F0000F0430000E03F2DE9FF4F16
:1015F00095B09B4689460646002512E2252878D1FB
:101600000024761CF94A2746012105943378203BB3
:1016100001FA03F0104202D00443761CF6E730785A
:101620002A2811D06FF02F033078A0F13002092A58
:1016300016D8059A44F0020402EB820203EB420240
:101640001044761C0590EFE759F8042B0592002A08
:1016500003DA504244F40054059044F00204761C2E
:1016600030782E2816D116F8010F44F004042A28E9
:101670000DD06FF02F023078A0F13003092B09D87C
:1016800007EB870302EB4303C718761CF3E759F80F
:10169000047B761C30786C280FD006DC4C2817D0E1
:1016A00068280DD06A2814D104E0742810D07A2854
:1016B0000FD10DE044F400140AE044F4801401E07A
:1016C00044F440147278824202D1761C04F58014EE
:1016D000761C307866280BD013DC582877D009DCCC
:1016E000002875D04528F6D04628F4D047281AD1CE
:1016F0009FE118E0632835D0642879D0652812D19D
:1017000097E1702873D008DC6728F1D069286FD082
:101710006E280DD06F2806D1B5E073282CD075281F
:1017200075D0782874D05A46179990476D1C76E189
:10173000C4F30250022809D003280DD0D9F80010B4
:1017400004280DD00D6009F1040968E1D9F80010F2
:10175000EA17C1E90052F6E7D9F800100D80F2E768
:101760000D70F0E719F8041B8DF8001000208DF8BB
:101770000100EA46012003E059F804AB4FF0FF30C6
:1017800061074FF0000102D40DE008F10101884625
:10179000B9420FDA8045F8DB1AF808100029F4D1B5
:1017A00008E008F1010188468142FADB1AF80810C6
:1017B0000029F6D105985B46A0EB0807214638467C
:1017C000179A00F09EFA284400EB080507E04DE068
:1017D0002BE10DE01AF8010B5A4617999047B8F122
:1017E0000108F7D25B4621463846179A14E142E0D9
:1017F0000A220092C4F302524FF0000A022A08D0D3
:1018000059F804CB032A4FEAEC710AD00DE029E025
:101810002AE009F1070121F00702F2E802C191462E
:1018200009E00FFA8CFC4FEAEC71042A03D14FFA5D
:101830008CFC4FEAEC71002907DA0A460021DCF142
:10184000000C61EB02012D2202E0220504D52B22BF
:101850008DF80420012203E0E20701D02022F7E7FF
:10186000904653E00A2102E010220DE010214FF0D3
:10187000000A00910BE010224FF0000A44F004042B
:101880000827009203E008224FF0000A0092C4F3F8
:101890000252022A05D059F804CB0021032A08D0AD
:1018A00009E009F1070121F00702F2E802C19146BF
:1018B00005E01FFA8CFC042A01D10CF0FF0C4FF05C
:1018C0000008220722D5702827D0009B83F0100340
:1018D00053EA0A0309D15CEA010206D030228DF8EE
:1018E00004208DF8050002229046009B83F0080337
:1018F00053EA0A030AD15CEA010201D1620705D565
:1019000030228DF804204FF001087F1E582809D09E
:1019100037A003900EA8029013E040228DF8042017
:101920000122E1E737A0F4E753466046009AFEF74C
:101930002BFD84460398825C0298A0F1010002907E
:1019400002705CEA0100EFD1029806A9A1EB000049
:1019500000F1200A600702D524F4803400E001275A
:10196000574502DDA7EB0A0000E0002000EB0A016A
:10197000009005984144A0EB01000590E00306D4D7
:101980005B462146179A059800F0BBF905440027ED
:1019900006E001A85A46C05D179990476D1C7F1C50
:1019A0004745F6DBE0030CD55B462146179A0598C0
:1019B00000F0A7F9054404E030205A4617999047F3
:1019C0006D1C0099481E00900029F5DC08E0029883
:1019D00002995A460078491C0291179990476D1C4C
:1019E000BAF10001AAF1010AF1DC6BE1092801005A
:1019F0003031323334353637383961626364656685
:101A00000000000030313233343536373839414246
:101A1000434445460000000000F060F9054406F12B
:101A20000106307800287FF4E9AD19B02846BDE8FA
:101A3000F08F620700D4062709F1070222F0070C95
:101A4000FCE80223E14603F000485FEA080C02D0FC
:101A50000FF27C2C0DE05FEA045C02D50FF2742CCF
:101A600007E05FEAC47C02D00FF26C2C01E0AFF219
:101A7000700C4FF0FF3823F00043CDF850C06528BC
:101A80000CD006DC452809D046281DD047283ED179
:101A90003EE0662818D0672839D139E00021112F9F
:101AA00001DB112000E0781CCDE9000106A90EA899
:101AB000FFF7EEFCDDE90F010E9A03910021009281
:101AC00007F1010A04914EE04FF000400097CDE984
:101AD000011006A90EA8FFF7DBFCDDE90F02039257
:101AE0000E9B11990022DDF80CA00093049219B905
:101AF00007F1010100EB010AB7EB0A0004D4C0F1C1
:101B0000FF3007F1010A0490AAEB0700019046E0BC
:101B1000012F00DA01270021112F01DD112000E043
:101B20003846CDE9000106A90EA8FFF7B1FCDDE9B2
:101B30000F010E9A0391002104910092BA462107E9
:101B40000CD40399514500DA8A46BAF1010F05DD3C
:101B5000009AAAF10101515C302908D0B84202DA9A
:101B600010F1040F06DA0121CDE9011017E0AAF106
:101B70000101E9E7002805DC049901440491AAEB7E
:101B8000000102E0411C514500DD8A460499A0EBAA
:101B9000010000F1010001904FF000400290200789
:101BA00004D40198504501DBCDF8048000208DF865
:101BB0004F0002980DF14F07B0F1004F25D02B20B8
:101BC0000E9002984FF0020800280CDA4042029072
:101BD0002D200E9007E00A210298FEF7BFFB30315E
:101BE000029007F8011DB8F10001A8F10108F2DC2C
:101BF00002980028EFD1791E0E980870307800F016
:101C0000200040F0450007F8020D12A8A0EB0700E5
:101C100000F107081498007800B1012000EB0A01D8
:101C2000019801EBE07105984144A0EB0100A0F19F
:101C300001000590E00306D45B462146179A0598FB
:101C400000F05FF805441498007820B15A461799BF
:101C5000904705F10105E00323D55B462146179A1D
:101C6000059800F04EF805441BE00498002807DBB7
:101C7000DDE90301884203DD0098405C179901E02B
:101C8000179930205A46904704986D1C401C0490C8
:101C90000198401E019004D12E205A461799904772
:101CA0006D1CBAF10001AAF1010ADEDC05E017F8AB
:101CB000010B5A46179990476D1CB8F10001A8F125
:101CC0000108F4DC5B462146179A0598A4E600005B
:101CD0002D0000002B000000200000002DE9F04145
:101CE000044600251E461746880405D406E03946FA
:101CF0002020B04705F10105641EF8D52846BDE84F
:101D0000F0812DE9F041044600251E469046C803A7
:101D100001D5302700E02027880405D506E041469C
:101D20003846B04705F10105641EF8D52846BDE8E0
:101D3000F081000010B504466FF00400FEF7D2FEFB
:101D40000649E00800EB40020870C2EBC0104FF6F5
:101D5000FF7202EAC000488010BD00000C000020A5
:101D60000849498848434FF0E021486100238B61CE
:101D7000012008610869C20701D0C003FAD50B61D0
:101D80008B6170470C00002070B5074D0446C1B24E
:101D90002846FFF757FB40212846FFF7CFFA0128D6
:101DA000F9D1204670BD000000440040FEF7A8FEB7
:101DB0004820FFF7BFFFFEF728FDFFF71BFA47217A
:101DC00040F2E730FEF7F4FE274CC8212046FFF72B
:101DD00047F94FF4C8712046FFF744F94FF41671E4
:101DE0002046FFF741F94FF448712046FFF73EF9CE
:101DF00047214FF6FF70FEF75FFF1C4D6420FFF791
:101E0000AFFF28780028F9D119481A4C64210088BE
:101E100048432188B0FBF1F117A0FFF719FB208898
:101E20001A49B1FBF0F11AA0FFF712FB21881CA0A0
:101E3000FFF70EFB2088FEF784FA1E4A1E4BFEF7C2
:101E40009FF902460B4600201C49FEF70BFA02469A
:101E50000B461BA0FFF7FCFA1DA0FFF7F9FA0120C3
:101E6000287000202080C9E70004004010000020F6
:101E70001400002012000020647574792020093DB0
:101E80002025642525200D0A0000000040420F0097
:101E90006379636C6520093D202564487A0D0A004A
:101EA000706572696F6420203D20256475730D0A8A
:101EB00000000000D7A3703DEA96F84065CDCD4103
:101EC000766F6C6574696379203D2025666D2F738C
:101ED0000A000000F41E000800000020300000008E
:101EE00070140008241F000830000020C8040000FF
:101EF0008014000800000000000000000000000046
:101F000000000000010000000000020406080000BC
:101F1000000001020304010203040607080900008F
:041F200000000000BD
:04000005080001519D
:00000001FF
