:020000040800F2
:1000000000040020CF0100087506000877060008EC
:100010007B0600087F060008830600080000000039
:10002000000000000000000000000000870600083B
:1000300089060008000000008B0600088D060008F5
:10004000EF010008EF010008EF010008EF010008D0
:10005000EF010008EF010008EF010008EF010008C0
:10006000EF010008EF010008EF010008EF010008B0
:10007000EF010008EF010008EF010008EF010008A0
:10008000EF010008EF010008EF010008EF01000890
:10009000EF010008EF010008EF010008EF01000880
:1000A000EF010008EF010008EF010008EF01000870
:1000B000EF010008EF010008EF010008EF01000860
:1000C000EF010008EF010008EF010008EF01000850
:1000D000EF010008EF010008EF010008EF01000840
:1000E000EF010008EF010008EF010008EF01000830
:1000F000EF010008EF010008EF010008EF01000820
:10010000EF010008EF010008EF010008EF0100080F
:10011000EF010008EF010008EF010008EF010008FF
:10012000EF010008EF010008EF010008EF010008EF
:1001300000F002F800F03AF80AA090E8000C8244BF
:100140008344AAF10107DA4501D100F02FF8AFF29C
:10015000090EBAE80F0013F0010F18BFFB1A43F0A5
:10016000010318471C0F00003C0F0000103A24BF89
:1001700078C878C1FAD8520724BF30C830C144BF0C
:1001800004680C607047000000230024002500264E
:10019000103A28BF78C1FBD8520728BF30C148BFEA
:1001A0000B6070471FB51FBD10B510BD00F031FFCB
:1001B0001146FFF7F7FF00F029FA00F04FFF03B4F4
:1001C000FFF7F2FF03BC00F053FF000070470B483D
:1001D00080470B4981F308880A480047FEE7FEE79D
:1001E000FEE7FEE7FEE7FEE7FEE7FEE7FEE7FEE7E7
:1001F00005480649044A064B70470000CD01000837
:1002000078020020310100087800002078020020E8
:100210007800002000E0401E0028FCD170472DE946
:10022000F04107460124002500264FF0000800BFDA
:10023000E7E1012400250026DFE0012C07D161025F
:10024000FE4800F0F6FBFE48FFF7E4FF07E04FF43E
:100250000071FA4800F0EBFBF948FFF7DBFF022CD6
:1002600007D1A102F54800F0E4FBF548FFF7D2FF03
:1002700007E04FF40061F14800F0D9FBF048FFF7C8
:10028000C9FF042C07D1E102EC4800F0D2FBEC4896
:10029000FFF7C0FF07E04FF40051E84800F0C7FB4C
:1002A000E748FFF7B7FF082C07D1E102E34800F069
:1002B000C0FBE348FFF7AEFF07E04FF48041DF48A3
:1002C00000F0B5FBDE48FFF7A5FF64006D1C042DB0
:1002D0007ED12903D94800F0AAFBD948FFF79AFF3D
:1002E000D748FFF797FFD648FFF794FF2903D34875
:1002F00000F09FFBE902D14800F09BFB6902CF4868
:1003000000F097FBE901CD4800F093FBCC48FFF7E4
:1003100081FF2903C94800F08AFBE902C74800F0C1
:1003200086FB6902C54800F082FBE901C34800F082
:100330007EFBC348FFF76EFFC148FFF76BFFC04865
:10034000FFF768FF2903BD4800F073FBE902BB48D3
:1003500000F06FFB6902B94800F06BFBE901B74898
:1003600000F067FBB648FFF755FF2903B34800F0DC
:100370005EFBE902B14800F05AFB6902AF4800F0A9
:1003800056FBE901AD4800F052FBAD48FFF742FFD4
:10039000AB48FFF73FFFAA48FFF73CFF2903A748F8
:1003A00000F047FBE902A54800F043FB6902A348BF
:1003B00000F03FFBE901A14800F03BFBA048FFF73C
:1003C00029FF29039D4800F032FBE9029B4800E029
:1003D00012E000F02CFB6902984800F028FBE901CC
:1003E000964800F024FB9648FFF714FF9448FFF767
:1003F00011FF9348FFF70EFF761C042EFFF61DAF8A
:1004000000250026F8E0082C07D1E1028B4800F017
:1004100010FB8B48FFF7FEFE07E04FF48041874852
:1004200000F005FB8648FFF7F5FE042C07D1E1023A
:10043000824800F0FEFA8248FFF7ECFE07E04FF436
:1004400000517E4800F0F3FA7D48FFF7E3FE022CEE
:1004500007D1A102794800F0ECFA7948FFF7DAFEFB
:1004600007E04FF40061754800F0E1FA7448FFF7C7
:10047000D1FE012C07D16102704800F0DAFA704811
:10048000FFF7C8FE07E04FF400716C4800F0CFFAA8
:100490006B48FFF7BFFE64086D1C052D7ED14FF43D
:1004A0000071664800F0C3FA6548FFF7B3FE644880
:1004B000FFF7B0FE6248FFF7ADFE4FF400715F48F2
:1004C00000F0B7FA4FF400615C4800F0B2FA4FF464
:1004D00000515A4800F0ADFA4FF48041574800F0FF
:1004E000A8FA5748FFF796FE4FF40071534800F002
:1004F0009EFA4FF40061514800F099FA4FF4005110
:100500004E4800F094FA4FF480414C4800F08FFAC6
:100510004B48FFF77FFE4A48FFF77CFE4848FFF74D
:1005200079FE4FF40071454800F083FA4FF4006102
:10053000424800F07EFA4FF40051404800F079FA4A
:100540004FF480413D4800F074FA3D48FFF762FEE9
:100550004FF40071394800F06AFA4FF400613748EF
:1005600000F065FA4FF40051344800F060FA4FF49F
:100570008041324800F05BFA3148FFF74BFE3048CB
:10058000FFF748FE2E48FFF745FE4FF400712B4859
:1005900000F04FFA4FF40061284800E02BE000F033
:1005A00048FA4FF40051254800F043FA4FF48041D7
:1005B000224800F03EFA2248FFF72CFE4FF400716B
:1005C0001E4800F034FA4FF400611C4800F02FFA86
:1005D0004FF40051194800F02AFA4FF480411748AF
:1005E00000F025FA1648FFF715FE1548FFF712FE32
:1005F0001348FFF70FFE761C052EFFF604AF08F137
:100600000108B845FFF615AEBDE8F08100F0D3FC57
:1006100000F03EF800F061F828E04021094800F0C1
:1006200070F810B90120FFF7FAFD8021054800F0AD
:1006300068F810B90220FFF7F2FD05E0001801404C
:1006400040420F00001001404FF48071084800F054
:1006500058F810B90320FFF7E2FD4FF40071044889
:1006600000F04FF810B90420FFF7D9FDD5E70000DE
:1006700000100140704700BFFEE700BFFEE700BF6B
:10068000FEE700BFFEE77047704770477047000005
:1006900008B50121402000F0B5FB4FF4D440ADF87F
:1006A000000010208DF8030003208DF80200694639
:1006B000044800F011F94FF4D441024800F0B7F9B2
:1006C00008BD00000018014001B502E00098401E7E
:1006D000009000980028F9D108BD08B5012110202C
:1006E00000F090FB4FF47070ADF8000001208DF821
:1006F000020048208DF803006946424800F0ECF8FB
:1007000008BD70B505460E4640213E4800F075F91B
:1007100008B9012400E0002480213A4800F06DF976
:1007200008B9012000E0002004434FF480713548EF
:1007300000F063F908B9012000E0002004434FF401
:100740000071304800F059F908B9012000E000209C
:10075000044354D042F21070FFF7B6FF40212948FD
:1007600000F04BF908B9012400E00024802125485D
:1007700000F043F908B9012000E0002004434FF4E1
:100780008071204800F039F908B9012000E000200C
:1007900004434FF400711B4800F02FF908B9012001
:1007A00000E00020044328D000BF4021154800F09D
:1007B00024F908B9012400E000248021114800F048
:1007C0001CF908B9012000E0002004434FF48071B7
:1007D0000C4800F012F908B9012000E000200443A1
:1007E0004FF40071074800F008F908B9012000E053
:1007F00000200443D9D1002070BD0120FCE7012076
:10080000FAE700000010014010B50446C549601A1F
:100810008C422FD009DCC448201810D0B0F5806F6E
:1008200016D0B0F5006F4AD11BE0B0F5806F2AD02A
:10083000B0F5006F30D0B0F5406F40D135E0012108
:10084000042000F0F9FA0021042000F0F5FA37E066
:100850000121082000F0F0FA0021082000F0ECFA55
:100860002EE00121102000F0E7FA0021102000F016
:10087000E3FA25E00121202000F0DEFA002120200B
:1008800000F0DAFA1CE00121402000F0D5FA002146
:10089000402000F0D1FA13E00121802000F0CCFAD2
:1008A0000021802000F0C8FA0AE00121080200F0CF
:1008B000C3FA00214FF4807000F0BEFA00E000BFE0
:1008C00000BF10BD10B50121084600F0B5FA0021A7
:1008D000012000F0B1FA10BD2DE9F04102460025DB
:1008E0000026002000230024002791F803C00CF00C
:1008F0000F0591F803C01CF0100F03D091F802C04F
:100900004CEA050591F800C0BCF1000F31D0146825
:1009100000202BE04FF0010C0CFA00F3B1F800C0FE
:100920000CEA03069E4220D183004FF00F0C0CFA14
:1009300003F7BC4305FA03FC4CEA040491F803C036
:10094000BCF1280F06D14FF0010C0CFA00FCC2F8E4
:1009500014C00AE091F803C0BCF1480F05D14FF074
:10096000010C0CFA00FCC2F810C0401C0828D1D3BE
:100970001460B1F800C0BCF1FF0F34DD54680020F2
:100980002EE000F1080C4FF0010808FA0CF3B1F862
:1009900000C00CEA03069E4221D183004FF00F0CE9
:1009A0000CFA03F7BC4305FA03FC4CEA040491F883
:1009B00003C0BCF1280F05D100F1080C08FA0CF8AF
:1009C000C2F8148091F803C0BCF1480F07D100F1C0
:1009D000080C4FF0010808FA0CF8C2F81080401C0F
:1009E0000828CED35460BDE8F0814FF6FF71018036
:1009F000022181700421C170704702460020936873
:100A00000B4201D0012000E00020704701468868B9
:100A100080B2704702460020D3680B4201D001200B
:100A200000E0002070470146C86880B2704701614D
:100A30007047416170470AB1016100E04161704750
:100A4000C16070474FF480320A43826181618261E4
:100A500082698269704702460020344B18684FF65D
:100A60008073184040EA02100843304B186070470A
:100A70002F49C8617047F0B50A46002300240021C1
:100A800000252A4E7168C0F3034583B200F4401676
:100A9000B6F5401F08D121F07061244E766826F02B
:100AA0007066224F7E6012E000F48016B6F5801F5B
:100AB00006D1032606FA05F4A14341F0706106E071
:100AC000460D360103FA06F6B14341F0706122B1DA
:100AD000460D360103FA06F63143144E7160F0BD3F
:100AE00030B500228B071C0F0F2303FA04F20F4BC3
:100AF00008338C1053F8243093430C4C08348D1079
:100B000044F8253023468C1053F824308C07240FEA
:100B100000FA04F42343054C08348D1044F82530C2
:100B200030BD00000014014000F8FEBF000001408D
:100B300000002042DC48006840F00100DA4908600B
:100B400008464068D9490840D749486008460068C7
:100B5000D7490840D44908600846006820F480203E
:100B600008600846406820F4FE0048600020886065
:100B70007047CD49096821F48031CB4A1160114694
:100B8000096821F480211160B0F5803F03D0B0F5F1
:100B9000802F0ED106E0C449096841F48031C24A71
:100BA000116007E0C049096841F4A021BE4A116004
:100BB00000E000BF00BF704710B5014600220023CF
:100BC00000204A11012A02D1B74C236806E0022A0C
:100BD00002D1B54C236A01E0B34C636A01F01F02F5
:100BE000012494401C4201D0012000E0002010BDEF
:100BF00038B5002000900024002500BF3120FFF709
:100C0000DBFF05460098401C00901DB90098B0F528
:100C1000A06FF3D13120FFF7CFFF08B1012400E02E
:100C20000024204638BD014600209F4A106820F06D
:100C3000F80040EAC100106070479E4908607047A4
:100C400002460020984B586820F47C1042EA0103C9
:100C50001843954B5860704796490866704701469F
:100C60000020914A506820F003000843506070470C
:100C70008D48406800F00C007047014600208A4A09
:100C8000506820F0F0000843506070470146002093
:100C9000854A506820F4E060084350607047014680
:100CA0000020814A506820F4605040EAC100506042
:100CB000704729B17C4A527A02437B4B5A7204E056
:100CC000794A527A8243784B5A7270477A4908605F
:100CD000704701460020744A506820F440400843A1
:100CE000506070470021754A11706F4A82F82010D9
:100CF000012802D0042808D103E001216F4A1170B5
:100D000004E005216D4A117000E000BF00BF70478C
:100D10006B49086070476449096A0143624A11627D
:100D20007047674944390860704730B50021002298
:100D3000002400235C4D6D6805F00C0121B10429ED
:100D400005D0082923D105E05E4D056022E05D4D08
:100D500005601FE0544D6D6805F47012022505EB27
:100D60009242514D6D6805F480341CB9564D55437F
:100D700005600BE04C4D6D6815F4003F03D0524DFB
:100D80005543056002E04F4D5543056002E04D4D6F
:100D9000056000BF00BF444D6D6805F0F001090912
:100DA0004A4D6B5C0568DD4045603F4D6D6805F45C
:100DB000E061090A454D6B5C4568DD4085603A4D50
:100DC0006D6805F46051C90A404D6B5C4568DD40B3
:100DD000C560354D6D6805F44041890B3C4D6B5C39
:100DE000C568B5FBF3F5056130BD29B12E4A5269DE
:100DF00002432D4B5A6104E02B4A526982432A4B2D
:100E00005A61704729B1284A92690243264B9A6178
:100E100004E0254A92698243234B9A61704729B1C5
:100E2000214AD2690243204BDA6104E01E4AD269AA
:100E300082431D4BDA61704729B11B4AD2680243D5
:100E4000194BDA6004E0184AD2688243164BDA6024
:100E5000704729B1144A12690243134B1A6104E026
:100E6000114A12698243104B1A6170471449403984
:100E7000086070470F49C86470470B49C8717047D4
:100E80000948406A40F0807007494862704701464F
:100E90000020054A92680A4201D0012000E00020AB
:100EA0007047014988727047001002400000FFF847
:100EB000FFFFF6FE00004242D800424220100240EE
:100EC0008004424200127A0000093D000000002028
:100ED000100000200CB500200190009047480068E9
:100EE00040F480304549086000BF4448006800F481
:100EF000003000900198401C0190009818B90198AA
:100F0000B0F5A06FF1D13D48006810F4003F02D069
:100F10000120009001E0002000900098012843D1BA
:100F20003748006840F010003549086008460068FE
:100F300020F0030008600846006840F002000860E6
:100F40002E4840682D494860084640684860084679
:100F5000406840F4806048600846406820F47C1097
:100F600048600846406840F4E81048600846006859
:100F700040F08070086000BF2048006810F0007FDB
:100F8000FAD01E48406820F003001C49486008461B
:100F9000406840F00200486000BF1848406800F018
:100FA0000C000828F9D101E000BFFEE70CBD10B528
:100FB000FFF790FF10BD10B51048006840F0010029
:100FC0000E490860084640680E4908400B494860D1
:100FD000084600680C49084008490860084600684F
:100FE00020F4802008600846406820F4FE00486035
:100FF00000208860FFF7DBFF10BD000000100240FA
:10100000002002400000FFF8FFFFF6FE7047704727
:101010007047754600F028F8AE460500694653460D
:1010200020F00700854618B020B5FFF7E1F8BDE8CD
:1010300020404FF000064FF000074FF000084FF03F
:10104000000B21F00701AC46ACE8C009ACE8C009D0
:10105000ACE8C009ACE8C0098D4670470446AFF360
:1010600000802046FFF7ABF80048704714000020CE
:1010700001491820ABBEFEE72600020070470000C1
:10108000A010000800000020140000006C010008FF
:10109000B410000814000020640200008801000859
:1010A000000000000102030401020304060708090E
:0410B0000204060828
:04000005080001CF1F
:00000001FF
