:020000040800F2
:1000000068060020ED010008570400084D030008B1
:1000100055040008970200081506000800000000BB
:10002000000000000000000000000000DD040008E7
:100030009902000800000000C1040008B105000892
:10004000030200080302000803020008030200087C
:10005000030200080302000803020008030200086C
:10006000030200080302000803020008030200085C
:10007000030200080302000803020008030200084C
:10008000030200080302000803020008030200083C
:10009000030200080302000803020008030200082C
:1000A000030200080302000803020008030200081C
:1000B000030200080302000803020008030200080C
:1000C00003020008030200080302000803020008FC
:1000D00003020008030200080302000803020008EC
:1000E0009D0200080302000803020008000000004F
:1000F0000000000000000000000000000000000000
:1001000000000000000000000302000803020008D5
:1001100003020008030200080302000803020008AB
:10012000030200080302000803020008030200089B
:10013000030200089B0200080302000803020008F3
:10014000030200080302000803020008030200087B
:1001500000F002F800F03AF80AA090E8000C82449F
:100160008344AAF10107DA4501D100F02FF8AFF27C
:10017000090EBAE80F0013F0010F18BFFB1A43F085
:1001800001031847A8040000C8040000103A24BF67
:1001900078C878C1FAD8520724BF30C830C144BFEC
:1001A00004680C607047000000230024002500262E
:1001B000103A28BF78C1FBD8520728BF30C148BFCA
:1001C0000B6070471FB51FBD10B510BD00F02DF8B6
:1001D0001146FFF7F7FF00F01EFA00F04BF803B4EA
:1001E000FFF7F2FF03BC00F04FF80000084800479B
:1001F000FEE7FEE7FEE7FEE7FEE7FEE7FEE7FEE7D7
:10020000FEE7FEE703480449044A054B7047000037
:1002100051010008680000206806002068020020E4
:1002200068020020704770477047754600F028F854
:10023000AE4605006946534620F00700854618B0D3
:1002400020B5FFF7DFFFBDE820404FF000064FF07C
:1002500000074FF000084FF0000B21F00701AC46FB
:10026000ACE8C009ACE8C009ACE8C009ACE8C0091A
:100270008D4670470446AFF300802046FFF7AFFF7E
:10028000004870470400002001491820ABBEFEE77B
:10029000260002007047FEE7704770477047F0B5D0
:1002A000CC78002204F00F03E40601D58C782343B8
:1002B0000C784FF00F0C4FF0010EDCB105680E8882
:1002C0000EFA02F42640A64210D196000CFA06F768
:1002D00025EA070703FA06F5CE783D43282E02D01B
:1002E000482E02D002E0446100E00461521C082A5A
:1002F000E5D305600A88FF2A1CD94468002202F170
:1003000008060EFA06F50E882E40AE420ED1960073
:100310000CFA06F7BC4303FA06F7CE783C43282EC6
:1003200000D14561CE78482E00D10561521C082AC3
:10033000E5D34460F0BD0246002092680A4200D036
:10034000012070474161704701617047FEE700007E
:1003500008B50121102000F0B5F84FF47070ADF829
:10036000000003208DF8020004208DF80300694688
:100370000148FFF794FF08BD0010014070B5204D03
:100380004FF4007631462846FFF7D5FF4FF6FF744D
:1003900080B1AE1531462846FFF7CDFF98B18021D8
:1003A0002846FFF7C8FFB8B140212846FFF7C3FF32
:1003B000D8B121E0641EFDD131462846FFF7BBFFCE
:1003C000D0B9012070BD641EFDD131462846FFF72B
:1003D000B2FF88B9022070BD641EFDD1802128467D
:1003E000FFF7A9FF40B9032070BD641EFDD1402175
:1003F0002846FFF7A0FF08B1002070BD042070BDA3
:100400000010014038B50121402000F05BF84FF4A6
:10041000D440ADF8000003208DF8020010200C4CF1
:100420008DF8030069462046FFF739FF6115204625
:10043000FFF78AFFE1142046FFF786FF611420468C
:10044000FFF782FF4FF480412046FFF77DFF38BD64
:1004500000180140FEE770472DE9F047174D0446AC
:100460004FF4007631462846FFF76EFFEF14394609
:100470002846FFF769FF4FF4005841462846FFF72A
:1004800063FF4FF4804949462846FFF75DFF012C82
:100490000BD0022C0BD0032C0BD0042C0BD14946D3
:1004A0002846BDE8F047FFF74DBF3146F8E739462B
:1004B000F6E74146F4E7BDE8F08700000018014088
:1004C00070470000044A0029916901D0014300E00F
:1004D00081439161704700000010024070470000A6
:1004E0000CB500222E4800920192016841F480313F
:1004F00001604FF4A063016801F40031019100999B
:10050000491C0091019911B900999942F3D10168F0
:10051000890342D50121019122490A6842F0100263
:100520000A600A6822F003020A600A6842F00202C6
:100530000A604168416041684160416841F48061FE
:100540004160C16A184A1140C162C16A174A114329
:10055000C162016841F08061016001680901FCD558
:10056000416821F47C114160416841F4E811416027
:10057000016841F08071016001688901FCD5416822
:1005800021F003014160416841F00201416041688E
:10059000C1F381010229FAD10CBD0192FEE70000EE
:1005A000001002400020024000F0FEFF440601005F
:1005B00000F028B80F48016841F00101016041686E
:1005C0000D4A1140416001680C4A11400160016808
:1005D00021F480210160416821F4FE01416001683D
:1005E00021F0A05101604FF47F0181600021C162C0
:1005F000FFF776BF001002400000FFF0FFFFF6FE9D
:10060000FFF7D8BF024801680A3101607047000057
:1006100000000020FEE7FFF7F3FFFFF7F3FEFFF710
:1006200097FEFFF7ABFEFFF717FFFAE74C0600084F
:1006300000000020040000008C01000850060008A3
:100640000400002064060000A8010008000000006B
:04000005080001519D
:00000001FF
